{
  "transactions": [
    {
      "hash": "0x4dc074dc29da5bf05c94a020e06db537221f800dfb17bc7710d22a04c1f6eb1a",
      "transactionType": "CALL",
      "contractName": null,
      "contractAddress": "0xb651ea78a4388b8813e85f4479ddc4be78977f3b",
      "function": "setMaxSpotOracleDeviationBps(uint16)",
      "arguments": [
        "65535"
      ],
      "transaction": {
        "from": "0x5587fd98f5b5d8d0ddc09e49cddd08771bf0be1a",
        "to": "0xb651ea78a4388b8813e85f4479ddc4be78977f3b",
        "gas": "0x9aa2",
        "value": "0x0",
        "input": "0x55fd2fed000000000000000000000000000000000000000000000000000000000000ffff",
        "nonce": "0x22",
        "chainId": "0xaa36a7"
      },
      "additionalContracts": [],
      "isFixedGasLimit": false
    },
    {
      "hash": "0xe9f419d5c4a1dcd69ccdb6435af8a26195cc3db8c3275fc38a5f60aa03507f0e",
      "transactionType": "CALL",
      "contractName": null,
      "contractAddress": "0x9165e5ec71d2815d6681f96364a10ed708ab85c4",
      "function": "setPoolConfig((address,address,uint24,int24,address),(uint24,uint24,uint16,uint16,uint16,uint16,uint32,uint32,uint64))",
      "arguments": [
        "(0x6f1947c64569BC394Ccb312eFE12AA7AA7c49FDa, 0xD2B4047843Ea81Bff25CC022cC045888A93F3fa2, 8388608, 60, 0x9165e5eC71D2815D6681F96364a10eD708AB85c4)",
        "(500, 5000, 1, 65535, 65535, 5000, 60, 0, 0)"
      ],
      "transaction": {
        "from": "0x5587fd98f5b5d8d0ddc09e49cddd08771bf0be1a",
        "to": "0x9165e5ec71d2815d6681f96364a10ed708ab85c4",
        "gas": "0xec86",
        "value": "0x0",
        "input": "0x89396da50000000000000000000000006f1947c64569bc394ccb312efe12aa7aa7c49fda000000000000000000000000d2b4047843ea81bff25cc022cc045888a93f3fa20000000000000000000000000000000000000000000000000000000000800000000000000000000000000000000000000000000000000000000000000000003c0000000000000000000000009165e5ec71d2815d6681f96364a10ed708ab85c400000000000000000000000000000000000000000000000000000000000001f400000000000000000000000000000000000000000000000000000000000013880000000000000000000000000000000000000000000000000000000000000001000000000000000000000000000000000000000000000000000000000000ffff000000000000000000000000000000000000000000000000000000000000ffff0000000000000000000000000000000000000000000000000000000000001388000000000000000000000000000000000000000000000000000000000000003c00000000000000000000000000000000000000000000000000000000000000000000000000000000000000000000000000000000000000000000000000000000",
        "nonce": "0x23",
        "chainId": "0xaa36a7"
      },
      "additionalContracts": [],
      "isFixedGasLimit": false
    },
    {
      "hash": "0xb079ac445e576d0489858fb0d9afa1e42cc5e3c3bc53a76fb1c53e7cc4cabdc7",
      "transactionType": "CALL",
      "contractName": null,
      "contractAddress": "0x958979f81f32630483189695add36c8fe123ed71",
      "function": "setAnswer(int256)",
      "arguments": [
        "102000000"
      ],
      "transaction": {
        "from": "0x5587fd98f5b5d8d0ddc09e49cddd08771bf0be1a",
        "to": "0x958979f81f32630483189695add36c8fe123ed71",
        "gas": "0xb3aa",
        "value": "0x0",
        "input": "0x99213cd80000000000000000000000000000000000000000000000000000000006146580",
        "nonce": "0x24",
        "chainId": "0xaa36a7"
      },
      "additionalContracts": [],
      "isFixedGasLimit": false
    },
    {
      "hash": "0xe46bc963827a591224163025ce0d2577ed2cd3b0bebb76622e4a3eff19625dc8",
      "transactionType": "CALL",
      "contractName": null,
      "contractAddress": "0xd2b4047843ea81bff25cc022cc045888a93f3fa2",
      "function": "mint(address,uint256)",
      "arguments": [
        "0x5587Fd98F5b5D8d0dDC09e49cdDD08771Bf0bE1a",
        "10000000000000000000000"
      ],
      "transaction": {
        "from": "0x5587fd98f5b5d8d0ddc09e49cddd08771bf0be1a",
        "to": "0xd2b4047843ea81bff25cc022cc045888a93f3fa2",
        "gas": "0xc1f9",
        "value": "0x0",
        "input": "0x40c10f190000000000000000000000005587fd98f5b5d8d0ddc09e49cddd08771bf0be1a00000000000000000000000000000000000000000000021e19e0c9bab2400000",
        "nonce": "0x25",
        "chainId": "0xaa36a7"
      },
      "additionalContracts": [],
      "isFixedGasLimit": false
    },
    {
      "hash": "0xd59fbea7b4308c76a8f10f1d1507de39ca88d63d622b4f549a5eb5a28dbff29d",
      "transactionType": "CALL",
      "contractName": null,
      "contractAddress": "0xd2b4047843ea81bff25cc022cc045888a93f3fa2",
      "function": "approve(address,uint256)",
      "arguments": [
        "0xa088341c5FaD8115b2bc6B503467e39b47D45936",
        "10000000000000000000000"
      ],
      "transaction": {
        "from": "0x5587fd98f5b5d8d0ddc09e49cddd08771bf0be1a",
        "to": "0xd2b4047843ea81bff25cc022cc045888a93f3fa2",
        "gas": "0x9bb7",
        "value": "0x0",
        "input": "0x095ea7b3000000000000000000000000a088341c5fad8115b2bc6b503467e39b47d4593600000000000000000000000000000000000000000000021e19e0c9bab2400000",
        "nonce": "0x26",
        "chainId": "0xaa36a7"
      },
      "additionalContracts": [],
      "isFixedGasLimit": false
    },
    {
      "hash": "0x2eaee248679df954163c49fab2aad5db2af2392ac9a08aadc27717f485176361",
      "transactionType": "CALL",
      "contractName": null,
      "contractAddress": "0xa088341c5fad8115b2bc6b503467e39b47d45936",
      "function": "swap((address,address,uint24,int24,address),(bool,int256,uint160))",
      "arguments": [
        "(0x6f1947c64569BC394Ccb312eFE12AA7AA7c49FDa, 0xD2B4047843Ea81Bff25CC022cC045888A93F3fa2, 8388608, 60, 0x9165e5eC71D2815D6681F96364a10eD708AB85c4)",
        "(false, -10000000000000000000000, 1461446703485210103287273052203988822378723970341)"
      ],
      "transaction": {
        "from": "0x5587fd98f5b5d8d0ddc09e49cddd08771bf0be1a",
        "to": "0xa088341c5fad8115b2bc6b503467e39b47d45936",
        "gas": "0x9bc3b",
        "value": "0x0",
        "input": "0x1e2817de0000000000000000000000006f1947c64569bc394ccb312efe12aa7aa7c49fda000000000000000000000000d2b4047843ea81bff25cc022cc045888a93f3fa20000000000000000000000000000000000000000000000000000000000800000000000000000000000000000000000000000000000000000000000000000003c0000000000000000000000009165e5ec71d2815d6681f96364a10ed708ab85c40000000000000000000000000000000000000000000000000000000000000000fffffffffffffffffffffffffffffffffffffffffffffde1e61f36454dc00000000000000000000000000000fffd8963efd1fc6a506488495d951d5263988d25",
        "nonce": "0x27",
        "chainId": "0xaa36a7"
      },
      "additionalContracts": [],
      "isFixedGasLimit": false
    },
    {
      "hash": "0x8c875479f61d8d51183cb0de80f511e82df89925192e485b1c72aad5f5e6d793",
      "transactionType": "CALL",
      "contractName": null,
      "contractAddress": "0x958979f81f32630483189695add36c8fe123ed71",
      "function": "setAnswer(int256)",
      "arguments": [
        "104000000"
      ],
      "transaction": {
        "from": "0x5587fd98f5b5d8d0ddc09e49cddd08771bf0be1a",
        "to": "0x958979f81f32630483189695add36c8fe123ed71",
        "gas": "0x9a81",
        "value": "0x0",
        "input": "0x99213cd8000000000000000000000000000000000000000000000000000000000632ea00",
        "nonce": "0x28",
        "chainId": "0xaa36a7"
      },
      "additionalContracts": [],
      "isFixedGasLimit": false
    },
    {
      "hash": "0x2aade5a97a99e3230df9f53aa58efbd4d7bff8d289f7cdee94cae8ebbc2f100d",
      "transactionType": "CALL",
      "contractName": null,
      "contractAddress": "0xd2b4047843ea81bff25cc022cc045888a93f3fa2",
      "function": "mint(address,uint256)",
      "arguments": [
        "0x5587Fd98F5b5D8d0dDC09e49cdDD08771Bf0bE1a",
        "10000000000000000000000"
      ],
      "transaction": {
        "from": "0x5587fd98f5b5d8d0ddc09e49cddd08771bf0be1a",
        "to": "0xd2b4047843ea81bff25cc022cc045888a93f3fa2",
        "gas": "0xc1f9",
        "value": "0x0",
        "input": "0x40c10f190000000000000000000000005587fd98f5b5d8d0ddc09e49cddd08771bf0be1a00000000000000000000000000000000000000000000021e19e0c9bab2400000",
        "nonce": "0x29",
        "chainId": "0xaa36a7"
      },
      "additionalContracts": [],
      "isFixedGasLimit": false
    },
    {
      "hash": "0xf2da1c4ab93b6c635a3ae2a6c4f61f79429a5b53502e05c7f158cf893bc1e5d8",
      "transactionType": "CALL",
      "contractName": null,
      "contractAddress": "0xd2b4047843ea81bff25cc022cc045888a93f3fa2",
      "function": "approve(address,uint256)",
      "arguments": [
        "0xa088341c5FaD8115b2bc6B503467e39b47D45936",
        "10000000000000000000000"
      ],
      "transaction": {
        "from": "0x5587fd98f5b5d8d0ddc09e49cddd08771bf0be1a",
        "to": "0xd2b4047843ea81bff25cc022cc045888a93f3fa2",
        "gas": "0x10691",
        "value": "0x0",
        "input": "0x095ea7b3000000000000000000000000a088341c5fad8115b2bc6b503467e39b47d4593600000000000000000000000000000000000000000000021e19e0c9bab2400000",
        "nonce": "0x2a",
        "chainId": "0xaa36a7"
      },
      "additionalContracts": [],
      "isFixedGasLimit": false
    },
    {
      "hash": "0x6d1c2f58f6c7cc8772691bfd99922915367404331b04ffa2dd9d091fb4dd8699",
      "transactionType": "CALL",
      "contractName": null,
      "contractAddress": "0xa088341c5fad8115b2bc6b503467e39b47d45936",
      "function": "swap((address,address,uint24,int24,address),(bool,int256,uint160))",
      "arguments": [
        "(0x6f1947c64569BC394Ccb312eFE12AA7AA7c49FDa, 0xD2B4047843Ea81Bff25CC022cC045888A93F3fa2, 8388608, 60, 0x9165e5eC71D2815D6681F96364a10eD708AB85c4)",
        "(false, -10000000000000000000000, 1461446703485210103287273052203988822378723970341)"
      ],
      "transaction": {
        "from": "0x5587fd98f5b5d8d0ddc09e49cddd08771bf0be1a",
        "to": "0xa088341c5fad8115b2bc6b503467e39b47d45936",
        "gas": "0x63422",
        "value": "0x0",
        "input": "0x1e2817de0000000000000000000000006f1947c64569bc394ccb312efe12aa7aa7c49fda000000000000000000000000d2b4047843ea81bff25cc022cc045888a93f3fa20000000000000000000000000000000000000000000000000000000000800000000000000000000000000000000000000000000000000000000000000000003c0000000000000000000000009165e5ec71d2815d6681f96364a10ed708ab85c40000000000000000000000000000000000000000000000000000000000000000fffffffffffffffffffffffffffffffffffffffffffffde1e61f36454dc00000000000000000000000000000fffd8963efd1fc6a506488495d951d5263988d25",
        "nonce": "0x2b",
        "chainId": "0xaa36a7"
      },
      "additionalContracts": [],
      "isFixedGasLimit": false
    },
    {
      "hash": "0x44fbb6001b38ae707c48d69b28a235e7046bc1f85112c6e91f9f19676566c2e4",
      "transactionType": "CALL",
      "contractName": null,
      "contractAddress": "0x958979f81f32630483189695add36c8fe123ed71",
      "function": "setAnswer(int256)",
      "arguments": [
        "106000000"
      ],
      "transaction": {
        "from": "0x5587fd98f5b5d8d0ddc09e49cddd08771bf0be1a",
        "to": "0x958979f81f32630483189695add36c8fe123ed71",
        "gas": "0xa3ab",
        "value": "0x0",
        "input": "0x99213cd80000000000000000000000000000000000000000000000000000000006516e80",
        "nonce": "0x2c",
        "chainId": "0xaa36a7"
      },
      "additionalContracts": [],
      "isFixedGasLimit": false
    },
    {
      "hash": "0xe51e1c82ab5632e30b8079ed6b14499d6acab83d9a6a0e9f8c7c1bd47518d351",
      "transactionType": "CALL",
      "contractName": null,
      "contractAddress": "0xd2b4047843ea81bff25cc022cc045888a93f3fa2",
      "function": "mint(address,uint256)",
      "arguments": [
        "0x5587Fd98F5b5D8d0dDC09e49cdDD08771Bf0bE1a",
        "10000000000000000000000"
      ],
      "transaction": {
        "from": "0x5587fd98f5b5d8d0ddc09e49cddd08771bf0be1a",
        "to": "0xd2b4047843ea81bff25cc022cc045888a93f3fa2",
        "gas": "0xc1f9",
        "value": "0x0",
        "input": "0x40c10f190000000000000000000000005587fd98f5b5d8d0ddc09e49cddd08771bf0be1a00000000000000000000000000000000000000000000021e19e0c9bab2400000",
        "nonce": "0x2d",
        "chainId": "0xaa36a7"
      },
      "additionalContracts": [],
      "isFixedGasLimit": false
    },
    {
      "hash": "0xdef2aea0054922fb5706fe6345229008b19a629f25439ab19f875fbf7b57def1",
      "transactionType": "CALL",
      "contractName": null,
      "contractAddress": "0xd2b4047843ea81bff25cc022cc045888a93f3fa2",
      "function": "approve(address,uint256)",
      "arguments": [
        "0xa088341c5FaD8115b2bc6B503467e39b47D45936",
        "10000000000000000000000"
      ],
      "transaction": {
        "from": "0x5587fd98f5b5d8d0ddc09e49cddd08771bf0be1a",
        "to": "0xd2b4047843ea81bff25cc022cc045888a93f3fa2",
        "gas": "0x10691",
        "value": "0x0",
        "input": "0x095ea7b3000000000000000000000000a088341c5fad8115b2bc6b503467e39b47d4593600000000000000000000000000000000000000000000021e19e0c9bab2400000",
        "nonce": "0x2e",
        "chainId": "0xaa36a7"
      },
      "additionalContracts": [],
      "isFixedGasLimit": false
    },
    {
      "hash": "0x742ae0a1f771a8613e52d8ebf08797cdc64160f8b1a5913cae152aa87f2627ef",
      "transactionType": "CALL",
      "contractName": null,
      "contractAddress": "0xa088341c5fad8115b2bc6b503467e39b47d45936",
      "function": "swap((address,address,uint24,int24,address),(bool,int256,uint160))",
      "arguments": [
        "(0x6f1947c64569BC394Ccb312eFE12AA7AA7c49FDa, 0xD2B4047843Ea81Bff25CC022cC045888A93F3fa2, 8388608, 60, 0x9165e5eC71D2815D6681F96364a10eD708AB85c4)",
        "(false, -10000000000000000000000, 1461446703485210103287273052203988822378723970341)"
      ],
      "transaction": {
        "from": "0x5587fd98f5b5d8d0ddc09e49cddd08771bf0be1a",
        "to": "0xa088341c5fad8115b2bc6b503467e39b47d45936",
        "gas": "0x67582",
        "value": "0x0",
        "input": "0x1e2817de0000000000000000000000006f1947c64569bc394ccb312efe12aa7aa7c49fda000000000000000000000000d2b4047843ea81bff25cc022cc045888a93f3fa20000000000000000000000000000000000000000000000000000000000800000000000000000000000000000000000000000000000000000000000000000003c0000000000000000000000009165e5ec71d2815d6681f96364a10ed708ab85c40000000000000000000000000000000000000000000000000000000000000000fffffffffffffffffffffffffffffffffffffffffffffde1e61f36454dc00000000000000000000000000000fffd8963efd1fc6a506488495d951d5263988d25",
        "nonce": "0x2f",
        "chainId": "0xaa36a7"
      },
      "additionalContracts": [],
      "isFixedGasLimit": false
    },
    {
      "hash": "0x6699dfa12c5f9ad79c3f737fdeb5e6d0c78235f8cb66fafdc535394b1bf543c1",
      "transactionType": "CALL",
      "contractName": null,
      "contractAddress": "0x958979f81f32630483189695add36c8fe123ed71",
      "function": "setAnswer(int256)",
      "arguments": [
        "108000000"
      ],
      "transaction": {
        "from": "0x5587fd98f5b5d8d0ddc09e49cddd08771bf0be1a",
        "to": "0x958979f81f32630483189695add36c8fe123ed71",
        "gas": "0x9a81",
        "value": "0x0",
        "input": "0x99213cd800000000000000000000000000000000000000000000000000000000066ff300",
        "nonce": "0x30",
        "chainId": "0xaa36a7"
      },
      "additionalContracts": [],
      "isFixedGasLimit": false
    },
    {
      "hash": "0x84f5ad17e23b549128dd2f67db2822bae43146df5f5e57d1ded8900ed4bded46",
      "transactionType": "CALL",
      "contractName": null,
      "contractAddress": "0xd2b4047843ea81bff25cc022cc045888a93f3fa2",
      "function": "mint(address,uint256)",
      "arguments": [
        "0x5587Fd98F5b5D8d0dDC09e49cdDD08771Bf0bE1a",
        "10000000000000000000000"
      ],
      "transaction": {
        "from": "0x5587fd98f5b5d8d0ddc09e49cddd08771bf0be1a",
        "to": "0xd2b4047843ea81bff25cc022cc045888a93f3fa2",
        "gas": "0xc1f9",
        "value": "0x0",
        "input": "0x40c10f190000000000000000000000005587fd98f5b5d8d0ddc09e49cddd08771bf0be1a00000000000000000000000000000000000000000000021e19e0c9bab2400000",
        "nonce": "0x31",
        "chainId": "0xaa36a7"
      },
      "additionalContracts": [],
      "isFixedGasLimit": false
    },
    {
      "hash": "0x2d1918ad77a8b335b62a21eeb54ddcb37f1166cf5c235803a8c016f584e79b92",
      "transactionType": "CALL",
      "contractName": null,
      "contractAddress": "0xd2b4047843ea81bff25cc022cc045888a93f3fa2",
      "function": "approve(address,uint256)",
      "arguments": [
        "0xa088341c5FaD8115b2bc6B503467e39b47D45936",
        "10000000000000000000000"
      ],
      "transaction": {
        "from": "0x5587fd98f5b5d8d0ddc09e49cddd08771bf0be1a",
        "to": "0xd2b4047843ea81bff25cc022cc045888a93f3fa2",
        "gas": "0x10691",
        "value": "0x0",
        "input": "0x095ea7b3000000000000000000000000a088341c5fad8115b2bc6b503467e39b47d4593600000000000000000000000000000000000000000000021e19e0c9bab2400000",
        "nonce": "0x32",
        "chainId": "0xaa36a7"
      },
      "additionalContracts": [],
      "isFixedGasLimit": false
    },
    {
      "hash": "0x3eb59e82c60f90585ab9cdf012334f562b9803f44dfae23fa436e2b00420581c",
      "transactionType": "CALL",
      "contractName": null,
      "contractAddress": "0xa088341c5fad8115b2bc6b503467e39b47d45936",
      "function": "swap((address,address,uint24,int24,address),(bool,int256,uint160))",
      "arguments": [
        "(0x6f1947c64569BC394Ccb312eFE12AA7AA7c49FDa, 0xD2B4047843Ea81Bff25CC022cC045888A93F3fa2, 8388608, 60, 0x9165e5eC71D2815D6681F96364a10eD708AB85c4)",
        "(false, -10000000000000000000000, 1461446703485210103287273052203988822378723970341)"
      ],
      "transaction": {
        "from": "0x5587fd98f5b5d8d0ddc09e49cddd08771bf0be1a",
        "to": "0xa088341c5fad8115b2bc6b503467e39b47d45936",
        "gas": "0x63469",
        "value": "0x0",
        "input": "0x1e2817de0000000000000000000000006f1947c64569bc394ccb312efe12aa7aa7c49fda000000000000000000000000d2b4047843ea81bff25cc022cc045888a93f3fa20000000000000000000000000000000000000000000000000000000000800000000000000000000000000000000000000000000000000000000000000000003c0000000000000000000000009165e5ec71d2815d6681f96364a10ed708ab85c40000000000000000000000000000000000000000000000000000000000000000fffffffffffffffffffffffffffffffffffffffffffffde1e61f36454dc00000000000000000000000000000fffd8963efd1fc6a506488495d951d5263988d25",
        "nonce": "0x33",
        "chainId": "0xaa36a7"
      },
      "additionalContracts": [],
      "isFixedGasLimit": false
    },
    {
      "hash": "0x811a68ecfe53942993821d929ab359a6108e46924f0eaee2a069d8022fe759e7",
      "transactionType": "CALL",
      "contractName": null,
      "contractAddress": "0x958979f81f32630483189695add36c8fe123ed71",
      "function": "setAnswer(int256)",
      "arguments": [
        "110000000"
      ],
      "transaction": {
        "from": "0x5587fd98f5b5d8d0ddc09e49cddd08771bf0be1a",
        "to": "0x958979f81f32630483189695add36c8fe123ed71",
        "gas": "0xa3ab",
        "value": "0x0",
        "input": "0x99213cd800000000000000000000000000000000000000000000000000000000068e7780",
        "nonce": "0x34",
        "chainId": "0xaa36a7"
      },
      "additionalContracts": [],
      "isFixedGasLimit": false
    },
    {
      "hash": "0xf746c7bd23af4bb3b8518e2e6e9c10bd3fc7c5efd2fc07a3e412cfab9340ddcd",
      "transactionType": "CALL",
      "contractName": null,
      "contractAddress": "0xd2b4047843ea81bff25cc022cc045888a93f3fa2",
      "function": "mint(address,uint256)",
      "arguments": [
        "0x5587Fd98F5b5D8d0dDC09e49cdDD08771Bf0bE1a",
        "10000000000000000000000"
      ],
      "transaction": {
        "from": "0x5587fd98f5b5d8d0ddc09e49cddd08771bf0be1a",
        "to": "0xd2b4047843ea81bff25cc022cc045888a93f3fa2",
        "gas": "0xc1f9",
        "value": "0x0",
        "input": "0x40c10f190000000000000000000000005587fd98f5b5d8d0ddc09e49cddd08771bf0be1a00000000000000000000000000000000000000000000021e19e0c9bab2400000",
        "nonce": "0x35",
        "chainId": "0xaa36a7"
      },
      "additionalContracts": [],
      "isFixedGasLimit": false
    },
    {
      "hash": "0x06979de07a6163a4b3802f68071e71e604efc5ab9baad40322ce5ca706390f88",
      "transactionType": "CALL",
      "contractName": null,
      "contractAddress": "0xd2b4047843ea81bff25cc022cc045888a93f3fa2",
      "function": "approve(address,uint256)",
      "arguments": [
        "0xa088341c5FaD8115b2bc6B503467e39b47D45936",
        "10000000000000000000000"
      ],
      "transaction": {
        "from": "0x5587fd98f5b5d8d0ddc09e49cddd08771bf0be1a",
        "to": "0xd2b4047843ea81bff25cc022cc045888a93f3fa2",
        "gas": "0x10691",
        "value": "0x0",
        "input": "0x095ea7b3000000000000000000000000a088341c5fad8115b2bc6b503467e39b47d4593600000000000000000000000000000000000000000000021e19e0c9bab2400000",
        "nonce": "0x36",
        "chainId": "0xaa36a7"
      },
      "additionalContracts": [],
      "isFixedGasLimit": false
    },
    {
      "hash": "0x79930547408786f254d86f307612d61a575728a7095aa99a9debb72e747a8d97",
      "transactionType": "CALL",
      "contractName": null,
      "contractAddress": "0xa088341c5fad8115b2bc6b503467e39b47d45936",
      "function": "swap((address,address,uint24,int24,address),(bool,int256,uint160))",
      "arguments": [
        "(0x6f1947c64569BC394Ccb312eFE12AA7AA7c49FDa, 0xD2B4047843Ea81Bff25CC022cC045888A93F3fa2, 8388608, 60, 0x9165e5eC71D2815D6681F96364a10eD708AB85c4)",
        "(false, -10000000000000000000000, 1461446703485210103287273052203988822378723970341)"
      ],
      "transaction": {
        "from": "0x5587fd98f5b5d8d0ddc09e49cddd08771bf0be1a",
        "to": "0xa088341c5fad8115b2bc6b503467e39b47d45936",
        "gas": "0x619eb",
        "value": "0x0",
        "input": "0x1e2817de0000000000000000000000006f1947c64569bc394ccb312efe12aa7aa7c49fda000000000000000000000000d2b4047843ea81bff25cc022cc045888a93f3fa20000000000000000000000000000000000000000000000000000000000800000000000000000000000000000000000000000000000000000000000000000003c0000000000000000000000009165e5ec71d2815d6681f96364a10ed708ab85c40000000000000000000000000000000000000000000000000000000000000000fffffffffffffffffffffffffffffffffffffffffffffde1e61f36454dc00000000000000000000000000000fffd8963efd1fc6a506488495d951d5263988d25",
        "nonce": "0x37",
        "chainId": "0xaa36a7"
      },
      "additionalContracts": [],
      "isFixedGasLimit": false
    }
  ],
  "receipts": [
    {
      "type": "0x2",
      "status": "0x1",
      "cumulativeGasUsed": "0xc0da16",
      "logs": [],
      "logsBloom": "0x00000000000000000000000000000000000000000000000000000000000000000000000000000000000000000000000000000000000000000000000000000000000000000000000000000000000000000000000000000000000000000000000000000000000000000000000000000000000000000000000000000000000000000000000000000000000000000000000000000000000000000000000000000000000000000000000000000000000000000000000000000000000000000000000000000000000000000000000000000000000000000000000000000000000000000000000000000000000000000000000000000000000000000000000000000000",
      "transactionHash": "0x4dc074dc29da5bf05c94a020e06db537221f800dfb17bc7710d22a04c1f6eb1a",
      "transactionIndex": "0x86",
      "blockHash": "0xab44912e05eb0285e634392f19edbd193d43c1a1b85c634a872ef30e4b936b98",
      "blockNumber": "0xa84fc3",
      "gasUsed": "0x6ff4",
      "effectiveGasPrice": "0x16c5964a7",
      "from": "0x5587fd98f5b5d8d0ddc09e49cddd08771bf0be1a",
      "to": "0xb651ea78a4388b8813e85f4479ddc4be78977f3b",
      "contractAddress": null
    },
    {
      "type": "0x2",
      "status": "0x1",
      "cumulativeGasUsed": "0xc17bd0",
      "logs": [],
      "logsBloom": "0x00000000000000000000000000000000000000000000000000000000000000000000000000000000000000000000000000000000000000000000000000000000000000000000000000000000000000000000000000000000000000000000000000000000000000000000000000000000000000000000000000000000000000000000000000000000000000000000000000000000000000000000000000000000000000000000000000000000000000000000000000000000000000000000000000000000000000000000000000000000000000000000000000000000000000000000000000000000000000000000000000000000000000000000000000000000",
      "transactionHash": "0xe9f419d5c4a1dcd69ccdb6435af8a26195cc3db8c3275fc38a5f60aa03507f0e",
      "transactionIndex": "0x87",
      "blockHash": "0xab44912e05eb0285e634392f19edbd193d43c1a1b85c634a872ef30e4b936b98",
      "blockNumber": "0xa84fc3",
      "gasUsed": "0xa1ba",
      "effectiveGasPrice": "0x16c5964a7",
      "from": "0x5587fd98f5b5d8d0ddc09e49cddd08771bf0be1a",
      "to": "0x9165e5ec71d2815d6681f96364a10ed708ab85c4",
      "contractAddress": null
    },
    {
      "type": "0x2",
      "status": "0x1",
      "cumulativeGasUsed": "0xc1f6a9",
      "logs": [],
      "logsBloom": "0x00000000000000000000000000000000000000000000000000000000000000000000000000000000000000000000000000000000000000000000000000000000000000000000000000000000000000000000000000000000000000000000000000000000000000000000000000000000000000000000000000000000000000000000000000000000000000000000000000000000000000000000000000000000000000000000000000000000000000000000000000000000000000000000000000000000000000000000000000000000000000000000000000000000000000000000000000000000000000000000000000000000000000000000000000000000",
      "transactionHash": "0xb079ac445e576d0489858fb0d9afa1e42cc5e3c3bc53a76fb1c53e7cc4cabdc7",
      "transactionIndex": "0x88",
      "blockHash": "0xab44912e05eb0285e634392f19edbd193d43c1a1b85c634a872ef30e4b936b98",
      "blockNumber": "0xa84fc3",
      "gasUsed": "0x7ad9",
      "effectiveGasPrice": "0x16c5964a7",
      "from": "0x5587fd98f5b5d8d0ddc09e49cddd08771bf0be1a",
      "to": "0x958979f81f32630483189695add36c8fe123ed71",
      "contractAddress": null
    },
    {
      "type": "0x2",
      "status": "0x1",
      "cumulativeGasUsed": "0xc27b4b",
      "logs": [
        {
          "address": "0xd2b4047843ea81bff25cc022cc045888a93f3fa2",
          "topics": [
            "0xddf252ad1be2c89b69c2b068fc378daa952ba7f163c4a11628f55a4df523b3ef",
            "0x0000000000000000000000000000000000000000000000000000000000000000",
            "0x0000000000000000000000005587fd98f5b5d8d0ddc09e49cddd08771bf0be1a"
          ],
          "data": "0x00000000000000000000000000000000000000000000021e19e0c9bab2400000",
          "blockHash": "0xab44912e05eb0285e634392f19edbd193d43c1a1b85c634a872ef30e4b936b98",
          "blockNumber": "0xa84fc3",
          "blockTimestamp": "0x6a298004",
          "transactionHash": "0x811a68ecfe53942993821d929ab359a6108e46924f0eaee2a069d8022fe759e7",
          "transactionIndex": "0x89",
          "logIndex": "0x1a3",
          "removed": false
        }
      ],
      "logsBloom": "0x00000008000000000000000000000000000000000000000000000000000000000000000000000000000000000000000000000000000000000000000000000000000000002000000000020008000000010000000000000000000000000000000000000000020000000000000000000800000000000000000000000010000000000000000000000000000000000000000000000000000000000081000000000000000000000000000000000000000000000000000000000000000000000000000000000002000000000000000000000000000000000000000000000000000020000000000000000000000000000000000000000000000000000000000000000000",
      "transactionHash": "0x811a68ecfe53942993821d929ab359a6108e46924f0eaee2a069d8022fe759e7",
      "transactionIndex": "0x89",
      "blockHash": "0xab44912e05eb0285e634392f19edbd193d43c1a1b85c634a872ef30e4b936b98",
      "blockNumber": "0xa84fc3",
      "gasUsed": "0x84a2",
      "effectiveGasPrice": "0x16c5964a7",
      "from": "0x5587fd98f5b5d8d0ddc09e49cddd08771bf0be1a",
      "to": "0xd2b4047843ea81bff25cc022cc045888a93f3fa2",
      "contractAddress": null
    },
    {
      "type": "0x2",
      "status": "0x1",
      "cumulativeGasUsed": "0xc2ec08",
      "logs": [
        {
          "address": "0xd2b4047843ea81bff25cc022cc045888a93f3fa2",
          "topics": [
            "0x8c5be1e5ebec7d5bd14f71427d1e84f3dd0314c0f7b2291e5b200ac8c7c3b925",
            "0x0000000000000000000000005587fd98f5b5d8d0ddc09e49cddd08771bf0be1a",
            "0x000000000000000000000000a088341c5fad8115b2bc6b503467e39b47d45936"
          ],
          "data": "0x00000000000000000000000000000000000000000000021e19e0c9bab2400000",
          "blockHash": "0xab44912e05eb0285e634392f19edbd193d43c1a1b85c634a872ef30e4b936b98",
          "blockNumber": "0xa84fc3",
          "blockTimestamp": "0x6a298004",
          "transactionHash": "0x79930547408786f254d86f307612d61a575728a7095aa99a9debb72e747a8d97",
          "transactionIndex": "0x8a",
          "logIndex": "0x1a4",
          "removed": false
        }
      ],
      "logsBloom": "0x00000008000000000000000000000000000000000000000000000000000000000000000000000000000000000000000000000000000000000000000000200000000000002000000000020000000000010000000000000000000000000000000000000000000000000000000000000000080000000000000000000040000000000000000000000000000000000000000000000000000000000081000000000000020000000000000000000000000000000000000000000000000000000000000000000000000000000000000000000000000000000000000000000000000000000010000000000000000000000000000000040000000000000000000000000000",
      "transactionHash": "0x79930547408786f254d86f307612d61a575728a7095aa99a9debb72e747a8d97",
      "transactionIndex": "0x8a",
      "blockHash": "0xab44912e05eb0285e634392f19edbd193d43c1a1b85c634a872ef30e4b936b98",
      "blockNumber": "0xa84fc3",
      "gasUsed": "0x70bd",
      "effectiveGasPrice": "0x16c5964a7",
      "from": "0x5587fd98f5b5d8d0ddc09e49cddd08771bf0be1a",
      "to": "0xd2b4047843ea81bff25cc022cc045888a93f3fa2",
      "contractAddress": null
    },
    {
      "type": "0x2",
      "status": "0x1",
      "cumulativeGasUsed": "0xc9f85d",
      "logs": [
        {
          "address": "0x9165e5ec71d2815d6681f96364a10ed708ab85c4",
          "topics": [
            "0x60419e729b02f0ff9742581bf3e9d852f84f7949bc004d7a18a44148bbb4480a"
          ],
          "data": "0x0000000000000000000000000000000000000000000000000de0b6b3a76400000000000000000000000000000000000000000000000000000de0b6b3a76400000000000000000000000000000000000000000000000000000000000000000000000000000000000000000000000000000000000000000000000000006a298004",
          "blockHash": "0xab44912e05eb0285e634392f19edbd193d43c1a1b85c634a872ef30e4b936b98",
          "blockNumber": "0xa84fc3",
          "blockTimestamp": "0x6a298004",
          "transactionHash": "0x8c875479f61d8d51183cb0de80f511e82df89925192e485b1c72aad5f5e6d793",
          "transactionIndex": "0x8b",
          "logIndex": "0x1a5",
          "removed": false
        },
        {
          "address": "0x80fe0ec30c29b0c4c996b463b6869060b7c74a75",
          "topics": [
            "0x40e9cecb9f5f1f1c5b9c97dec2917b7ee92e57ba5563708daca94dd84ad7112f",
            "0x22d8b533a964aa3746ea32722f70bbc2f3a073f9e4ace158cb16f1726c84d33d",
            "0x000000000000000000000000a088341c5fad8115b2bc6b503467e39b47d45936"
          ],
          "data": "0x00000000000000000000000000000000000000000000010efb966433029df9b9fffffffffffffffffffffffffffffffffffffffffffffde1e61f36454dc000000000000000000000000000000000000000000001ffdf3b645a1cac083126e97800000000000000000000000000000000000000000000021e19e0c9bab2400000000000000000000000000000000000000000000000000000000000000000362200000000000000000000000000000000000000000000000000000000000001f4",
          "blockHash": "0xab44912e05eb0285e634392f19edbd193d43c1a1b85c634a872ef30e4b936b98",
          "blockNumber": "0xa84fc3",
          "blockTimestamp": "0x6a298004",
          "transactionHash": "0x8c875479f61d8d51183cb0de80f511e82df89925192e485b1c72aad5f5e6d793",
          "transactionIndex": "0x8b",
          "logIndex": "0x1a6",
          "removed": false
        },
        {
          "address": "0x6f1947c64569bc394ccb312efe12aa7aa7c49fda",
          "topics": [
            "0xddf252ad1be2c89b69c2b068fc378daa952ba7f163c4a11628f55a4df523b3ef",
            "0x00000000000000000000000080fe0ec30c29b0c4c996b463b6869060b7c74a75",
            "0x0000000000000000000000009165e5ec71d2815d6681f96364a10ed708ab85c4"
          ],
          "data": "0x0000000000000000000000000000000000000000000000000ddfd3456ff99494",
          "blockHash": "0xab44912e05eb0285e634392f19edbd193d43c1a1b85c634a872ef30e4b936b98",
          "blockNumber": "0xa84fc3",
          "blockTimestamp": "0x6a298004",
          "transactionHash": "0x8c875479f61d8d51183cb0de80f511e82df89925192e485b1c72aad5f5e6d793",
          "transactionIndex": "0x8b",
          "logIndex": "0x1a7",
          "removed": false
        },
        {
          "address": "0x6f1947c64569bc394ccb312efe12aa7aa7c49fda",
          "topics": [
            "0x8c5be1e5ebec7d5bd14f71427d1e84f3dd0314c0f7b2291e5b200ac8c7c3b925",
            "0x0000000000000000000000009165e5ec71d2815d6681f96364a10ed708ab85c4",
            "0x000000000000000000000000b651ea78a4388b8813e85f4479ddc4be78977f3b"
          ],
          "data": "0x0000000000000000000000000000000000000000000000000ddfd3456ff99494",
          "blockHash": "0xab44912e05eb0285e634392f19edbd193d43c1a1b85c634a872ef30e4b936b98",
          "blockNumber": "0xa84fc3",
          "blockTimestamp": "0x6a298004",
          "transactionHash": "0x8c875479f61d8d51183cb0de80f511e82df89925192e485b1c72aad5f5e6d793",
          "transactionIndex": "0x8b",
          "logIndex": "0x1a8",
          "removed": false
        },
        {
          "address": "0x6f1947c64569bc394ccb312efe12aa7aa7c49fda",
          "topics": [
            "0xddf252ad1be2c89b69c2b068fc378daa952ba7f163c4a11628f55a4df523b3ef",
            "0x0000000000000000000000009165e5ec71d2815d6681f96364a10ed708ab85c4",
            "0x000000000000000000000000b651ea78a4388b8813e85f4479ddc4be78977f3b"
          ],
          "data": "0x0000000000000000000000000000000000000000000000000ddfd3456ff99494",
          "blockHash": "0xab44912e05eb0285e634392f19edbd193d43c1a1b85c634a872ef30e4b936b98",
          "blockNumber": "0xa84fc3",
          "blockTimestamp": "0x6a298004",
          "transactionHash": "0x8c875479f61d8d51183cb0de80f511e82df89925192e485b1c72aad5f5e6d793",
          "transactionIndex": "0x8b",
          "logIndex": "0x1a9",
          "removed": false
        },
        {
          "address": "0xd2b4047843ea81bff25cc022cc045888a93f3fa2",
          "topics": [
            "0xddf252ad1be2c89b69c2b068fc378daa952ba7f163c4a11628f55a4df523b3ef",
            "0x000000000000000000000000b651ea78a4388b8813e85f4479ddc4be78977f3b",
            "0x0000000000000000000000009165e5ec71d2815d6681f96364a10ed708ab85c4"
          ],
          "data": "0x0000000000000000000000000000000000000000000000000ddfd3456ff99494",
          "blockHash": "0xab44912e05eb0285e634392f19edbd193d43c1a1b85c634a872ef30e4b936b98",
          "blockNumber": "0xa84fc3",
          "blockTimestamp": "0x6a298004",
          "transactionHash": "0x8c875479f61d8d51183cb0de80f511e82df89925192e485b1c72aad5f5e6d793",
          "transactionIndex": "0x8b",
          "logIndex": "0x1aa",
          "removed": false
        },
        {
          "address": "0xb651ea78a4388b8813e85f4479ddc4be78977f3b",
          "topics": [
            "0xaf3d3c43bc19cfa1dc2cc14eb7bae4a91e33127152762973bf23367da0496d69",
            "0x0000000000000000000000006f1947c64569bc394ccb312efe12aa7aa7c49fda",
            "0x0000000000000000000000009165e5ec71d2815d6681f96364a10ed708ab85c4"
          ],
          "data": "0x0000000000000000000000000000000000000000000069e11bc739bc407994940000000000000000000000000000000000000000000000000ddfd3456ff99494",
          "blockHash": "0xab44912e05eb0285e634392f19edbd193d43c1a1b85c634a872ef30e4b936b98",
          "blockNumber": "0xa84fc3",
          "blockTimestamp": "0x6a298004",
          "transactionHash": "0x8c875479f61d8d51183cb0de80f511e82df89925192e485b1c72aad5f5e6d793",
          "transactionIndex": "0x8b",
          "logIndex": "0x1ab",
          "removed": false
        },
        {
          "address": "0xb651ea78a4388b8813e85f4479ddc4be78977f3b",
          "topics": [
            "0xaf3d3c43bc19cfa1dc2cc14eb7bae4a91e33127152762973bf23367da0496d69",
            "0x000000000000000000000000d2b4047843ea81bff25cc022cc045888a93f3fa2",
            "0x0000000000000000000000009165e5ec71d2815d6681f96364a10ed708ab85c4"
          ],
          "data": "0x0000000000000000000000000000000000000000000069e10007933160866b6cfffffffffffffffffffffffffffffffffffffffffffffffff2202cba90066b6c",
          "blockHash": "0xab44912e05eb0285e634392f19edbd193d43c1a1b85c634a872ef30e4b936b98",
          "blockNumber": "0xa84fc3",
          "blockTimestamp": "0x6a298004",
          "transactionHash": "0x8c875479f61d8d51183cb0de80f511e82df89925192e485b1c72aad5f5e6d793",
          "transactionIndex": "0x8b",
          "logIndex": "0x1ac",
          "removed": false
        },
        {
          "address": "0xb651ea78a4388b8813e85f4479ddc4be78977f3b",
          "topics": [
            "0x902ab2223b65a639ed4b0a84d023660d162a68faa0ab33a023094ae44708bb6a",
            "0x0000000000000000000000009165e5ec71d2815d6681f96364a10ed708ab85c4"
          ],
          "data": "0x0000000000000000000000000000000000000000000069e10007933160866b6cfffffffffffffffffffffffffffffffffffffffffffffffff2202cba90066b6c",
          "blockHash": "0xab44912e05eb0285e634392f19edbd193d43c1a1b85c634a872ef30e4b936b98",
          "blockNumber": "0xa84fc3",
          "blockTimestamp": "0x6a298004",
          "transactionHash": "0x8c875479f61d8d51183cb0de80f511e82df89925192e485b1c72aad5f5e6d793",
          "transactionIndex": "0x8b",
          "logIndex": "0x1ad",
          "removed": false
        },
        {
          "address": "0xd2b4047843ea81bff25cc022cc045888a93f3fa2",
          "topics": [
            "0x8c5be1e5ebec7d5bd14f71427d1e84f3dd0314c0f7b2291e5b200ac8c7c3b925",
            "0x0000000000000000000000009165e5ec71d2815d6681f96364a10ed708ab85c4",
            "0x00000000000000000000000062471b05d0f4fbb9df314406b79f433f1ec818b0"
          ],
          "data": "0x0000000000000000000000000000000000000000000000000ddfd3456ff99494",
          "blockHash": "0xab44912e05eb0285e634392f19edbd193d43c1a1b85c634a872ef30e4b936b98",
          "blockNumber": "0xa84fc3",
          "blockTimestamp": "0x6a298004",
          "transactionHash": "0x8c875479f61d8d51183cb0de80f511e82df89925192e485b1c72aad5f5e6d793",
          "transactionIndex": "0x8b",
          "logIndex": "0x1ae",
          "removed": false
        },
        {
          "address": "0xd2b4047843ea81bff25cc022cc045888a93f3fa2",
          "topics": [
            "0xddf252ad1be2c89b69c2b068fc378daa952ba7f163c4a11628f55a4df523b3ef",
            "0x0000000000000000000000009165e5ec71d2815d6681f96364a10ed708ab85c4",
            "0x00000000000000000000000062471b05d0f4fbb9df314406b79f433f1ec818b0"
          ],
          "data": "0x0000000000000000000000000000000000000000000000000ddfd3456ff99494",
          "blockHash": "0xab44912e05eb0285e634392f19edbd193d43c1a1b85c634a872ef30e4b936b98",
          "blockNumber": "0xa84fc3",
          "blockTimestamp": "0x6a298004",
          "transactionHash": "0x8c875479f61d8d51183cb0de80f511e82df89925192e485b1c72aad5f5e6d793",
          "transactionIndex": "0x8b",
          "logIndex": "0x1af",
          "removed": false
        },
        {
          "address": "0x62471b05d0f4fbb9df314406b79f433f1ec818b0",
          "topics": [
            "0xddf252ad1be2c89b69c2b068fc378daa952ba7f163c4a11628f55a4df523b3ef",
            "0x0000000000000000000000000000000000000000000000000000000000000000",
            "0x00000000000000000000000062471b05d0f4fbb9df314406b79f433f1ec818b0"
          ],
          "data": "0x0000000000000000000000000000000000000000000000000ddfd3456ff99494",
          "blockHash": "0xab44912e05eb0285e634392f19edbd193d43c1a1b85c634a872ef30e4b936b98",
          "blockNumber": "0xa84fc3",
          "blockTimestamp": "0x6a298004",
          "transactionHash": "0x8c875479f61d8d51183cb0de80f511e82df89925192e485b1c72aad5f5e6d793",
          "transactionIndex": "0x8b",
          "logIndex": "0x1b0",
          "removed": false
        },
        {
          "address": "0x62471b05d0f4fbb9df314406b79f433f1ec818b0",
          "topics": [
            "0xdcbc1c05240f31ff3ad067ef1ee35ce4997762752e3a095284754544f4c709d7",
            "0x0000000000000000000000009165e5ec71d2815d6681f96364a10ed708ab85c4",
            "0x00000000000000000000000062471b05d0f4fbb9df314406b79f433f1ec818b0"
          ],
          "data": "0x0000000000000000000000000000000000000000000000000ddfd3456ff994940000000000000000000000000000000000000000000000000ddfd3456ff99494",
          "blockHash": "0xab44912e05eb0285e634392f19edbd193d43c1a1b85c634a872ef30e4b936b98",
          "blockNumber": "0xa84fc3",
          "blockTimestamp": "0x6a298004",
          "transactionHash": "0x8c875479f61d8d51183cb0de80f511e82df89925192e485b1c72aad5f5e6d793",
          "transactionIndex": "0x8b",
          "logIndex": "0x1b1",
          "removed": false
        },
        {
          "address": "0x924b2aec4657d68bfcd7b6d908d45403bdfc5c9f",
          "topics": [
            "0x1b3d7edb2e9c0b0e7c525b20aaaef0f5940d2ed71663c7d39266ecafac728859",
            "0x0000000000000000000000000000000000000000000000000000000000000000",
            "0x000000000000000000000000a088341c5fad8115b2bc6b503467e39b47d45936",
            "0x0000000000000000000000000000000000000000000000000000000000000001"
          ],
          "data": "0x0000000000000000000000009165e5ec71d2815d6681f96364a10ed708ab85c4000000000000000000000000000000000000000000000000002384ac36e1373e",
          "blockHash": "0xab44912e05eb0285e634392f19edbd193d43c1a1b85c634a872ef30e4b936b98",
          "blockNumber": "0xa84fc3",
          "blockTimestamp": "0x6a298004",
          "transactionHash": "0x8c875479f61d8d51183cb0de80f511e82df89925192e485b1c72aad5f5e6d793",
          "transactionIndex": "0x8b",
          "logIndex": "0x1b2",
          "removed": false
        },
        {
          "address": "0x9165e5ec71d2815d6681f96364a10ed708ab85c4",
          "topics": [
            "0x143f277ab7631008a141d4adfe06e8b7c5a169fc406e826eb1c53e4ca6f6e0af",
            "0x22d8b533a964aa3746ea32722f70bbc2f3a073f9e4ace158cb16f1726c84d33d",
            "0x000000000000000000000000a088341c5fad8115b2bc6b503467e39b47d45936"
          ],
          "data": "0x0000000000000000000000006f1947c64569bc394ccb312efe12aa7aa7c49fda0000000000000000000000000000000000000000000000000ddfd3456ff994940000000000000000000000000000000000000000000000000ddfd3456ff994940000000000000000000000000000000000000000000000000000000000000002",
          "blockHash": "0xab44912e05eb0285e634392f19edbd193d43c1a1b85c634a872ef30e4b936b98",
          "blockNumber": "0xa84fc3",
          "blockTimestamp": "0x6a298004",
          "transactionHash": "0x8c875479f61d8d51183cb0de80f511e82df89925192e485b1c72aad5f5e6d793",
          "transactionIndex": "0x8b",
          "logIndex": "0x1b3",
          "removed": false
        },
        {
          "address": "0x9165e5ec71d2815d6681f96364a10ed708ab85c4",
          "topics": [
            "0x179d4530c0170f3435081eb9e0c14edc5c87c5e8708c2a5e94caba45fa687a9f",
            "0x22d8b533a964aa3746ea32722f70bbc2f3a073f9e4ace158cb16f1726c84d33d"
          ],
          "data": "0x0000000000000000000000006f1947c64569bc394ccb312efe12aa7aa7c49fda0000000000000000000000000000000000000000000000000ddfd3456ff994940000000000000000000000000000000000000000000000000ddfd3456ff99494",
          "blockHash": "0xab44912e05eb0285e634392f19edbd193d43c1a1b85c634a872ef30e4b936b98",
          "blockNumber": "0xa84fc3",
          "blockTimestamp": "0x6a298004",
          "transactionHash": "0x8c875479f61d8d51183cb0de80f511e82df89925192e485b1c72aad5f5e6d793",
          "transactionIndex": "0x8b",
          "logIndex": "0x1b4",
          "removed": false
        },
        {
          "address": "0xd2b4047843ea81bff25cc022cc045888a93f3fa2",
          "topics": [
            "0xddf252ad1be2c89b69c2b068fc378daa952ba7f163c4a11628f55a4df523b3ef",
            "0x0000000000000000000000005587fd98f5b5d8d0ddc09e49cddd08771bf0be1a",
            "0x00000000000000000000000080fe0ec30c29b0c4c996b463b6869060b7c74a75"
          ],
          "data": "0x00000000000000000000000000000000000000000000021e19e0c9bab2400000",
          "blockHash": "0xab44912e05eb0285e634392f19edbd193d43c1a1b85c634a872ef30e4b936b98",
          "blockNumber": "0xa84fc3",
          "blockTimestamp": "0x6a298004",
          "transactionHash": "0x8c875479f61d8d51183cb0de80f511e82df89925192e485b1c72aad5f5e6d793",
          "transactionIndex": "0x8b",
          "logIndex": "0x1b5",
          "removed": false
        },
        {
          "address": "0x6f1947c64569bc394ccb312efe12aa7aa7c49fda",
          "topics": [
            "0xddf252ad1be2c89b69c2b068fc378daa952ba7f163c4a11628f55a4df523b3ef",
            "0x00000000000000000000000080fe0ec30c29b0c4c996b463b6869060b7c74a75",
            "0x0000000000000000000000005587fd98f5b5d8d0ddc09e49cddd08771bf0be1a"
          ],
          "data": "0x00000000000000000000000000000000000000000000010eedb690ed92a46525",
          "blockHash": "0xab44912e05eb0285e634392f19edbd193d43c1a1b85c634a872ef30e4b936b98",
          "blockNumber": "0xa84fc3",
          "blockTimestamp": "0x6a298004",
          "transactionHash": "0x8c875479f61d8d51183cb0de80f511e82df89925192e485b1c72aad5f5e6d793",
          "transactionIndex": "0x8b",
          "logIndex": "0x1b6",
          "removed": false
        }
      ],
      "logsBloom": "0x0000000800000000000000000000000000000000000000040102100040000000010000000000000000001400000800008040000004000000010000020024000000000240290000000002000800080c010000090000040020010000000080000000000080020000000000000002000800080000000005000000010150000000000000400000000000000000000000200004000008008020000081000000000040020000000080000000000000001060000044000000800000000000000000000000002002100000000000000000080000000000000008010040004000000160000010000000000000004000000000000000040000000000040000020804000200",
      "transactionHash": "0x8c875479f61d8d51183cb0de80f511e82df89925192e485b1c72aad5f5e6d793",
      "transactionIndex": "0x8b",
      "blockHash": "0xab44912e05eb0285e634392f19edbd193d43c1a1b85c634a872ef30e4b936b98",
      "blockNumber": "0xa84fc3",
      "gasUsed": "0x70c55",
      "effectiveGasPrice": "0x16c5964a7",
      "from": "0x5587fd98f5b5d8d0ddc09e49cddd08771bf0be1a",
      "to": "0xa088341c5fad8115b2bc6b503467e39b47d45936",
      "contractAddress": null
    },
    {
      "type": "0x2",
      "status": "0x1",
      "cumulativeGasUsed": "0xca683a",
      "logs": [],
      "logsBloom": "0x00000000000000000000000000000000000000000000000000000000000000000000000000000000000000000000000000000000000000000000000000000000000000000000000000000000000000000000000000000000000000000000000000000000000000000000000000000000000000000000000000000000000000000000000000000000000000000000000000000000000000000000000000000000000000000000000000000000000000000000000000000000000000000000000000000000000000000000000000000000000000000000000000000000000000000000000000000000000000000000000000000000000000000000000000000000",
      "transactionHash": "0x2eaee248679df954163c49fab2aad5db2af2392ac9a08aadc27717f485176361",
      "transactionIndex": "0x8c",
      "blockHash": "0xab44912e05eb0285e634392f19edbd193d43c1a1b85c634a872ef30e4b936b98",
      "blockNumber": "0xa84fc3",
      "gasUsed": "0x6fdd",
      "effectiveGasPrice": "0x16c5964a7",
      "from": "0x5587fd98f5b5d8d0ddc09e49cddd08771bf0be1a",
      "to": "0x958979f81f32630483189695add36c8fe123ed71",
      "contractAddress": null
    },
    {
      "type": "0x2",
      "status": "0x1",
      "cumulativeGasUsed": "0xcaecdc",
      "logs": [
        {
          "address": "0xd2b4047843ea81bff25cc022cc045888a93f3fa2",
          "topics": [
            "0xddf252ad1be2c89b69c2b068fc378daa952ba7f163c4a11628f55a4df523b3ef",
            "0x0000000000000000000000000000000000000000000000000000000000000000",
            "0x0000000000000000000000005587fd98f5b5d8d0ddc09e49cddd08771bf0be1a"
          ],
          "data": "0x00000000000000000000000000000000000000000000021e19e0c9bab2400000",
          "blockHash": "0xab44912e05eb0285e634392f19edbd193d43c1a1b85c634a872ef30e4b936b98",
          "blockNumber": "0xa84fc3",
          "blockTimestamp": "0x6a298004",
          "transactionHash": "0xd59fbea7b4308c76a8f10f1d1507de39ca88d63d622b4f549a5eb5a28dbff29d",
          "transactionIndex": "0x8d",
          "logIndex": "0x1b7",
          "removed": false
        }
      ],
      "logsBloom": "0x00000008000000000000000000000000000000000000000000000000000000000000000000000000000000000000000000000000000000000000000000000000000000002000000000020008000000010000000000000000000000000000000000000000020000000000000000000800000000000000000000000010000000000000000000000000000000000000000000000000000000000081000000000000000000000000000000000000000000000000000000000000000000000000000000000002000000000000000000000000000000000000000000000000000020000000000000000000000000000000000000000000000000000000000000000000",
      "transactionHash": "0xd59fbea7b4308c76a8f10f1d1507de39ca88d63d622b4f549a5eb5a28dbff29d",
      "transactionIndex": "0x8d",
      "blockHash": "0xab44912e05eb0285e634392f19edbd193d43c1a1b85c634a872ef30e4b936b98",
      "blockNumber": "0xa84fc3",
      "gasUsed": "0x84a2",
      "effectiveGasPrice": "0x16c5964a7",
      "from": "0x5587fd98f5b5d8d0ddc09e49cddd08771bf0be1a",
      "to": "0xd2b4047843ea81bff25cc022cc045888a93f3fa2",
      "contractAddress": null
    },
    {
      "type": "0x2",
      "status": "0x1",
      "cumulativeGasUsed": "0xcba065",
      "logs": [
        {
          "address": "0xd2b4047843ea81bff25cc022cc045888a93f3fa2",
          "topics": [
            "0x8c5be1e5ebec7d5bd14f71427d1e84f3dd0314c0f7b2291e5b200ac8c7c3b925",
            "0x0000000000000000000000005587fd98f5b5d8d0ddc09e49cddd08771bf0be1a",
            "0x000000000000000000000000a088341c5fad8115b2bc6b503467e39b47d45936"
          ],
          "data": "0x00000000000000000000000000000000000000000000021e19e0c9bab2400000",
          "blockHash": "0xab44912e05eb0285e634392f19edbd193d43c1a1b85c634a872ef30e4b936b98",
          "blockNumber": "0xa84fc3",
          "blockTimestamp": "0x6a298004",
          "transactionHash": "0xe51e1c82ab5632e30b8079ed6b14499d6acab83d9a6a0e9f8c7c1bd47518d351",
          "transactionIndex": "0x8e",
          "logIndex": "0x1b8",
          "removed": false
        }
      ],
      "logsBloom": "0x00000008000000000000000000000000000000000000000000000000000000000000000000000000000000000000000000000000000000000000000000200000000000002000000000020000000000010000000000000000000000000000000000000000000000000000000000000000080000000000000000000040000000000000000000000000000000000000000000000000000000000081000000000000020000000000000000000000000000000000000000000000000000000000000000000000000000000000000000000000000000000000000000000000000000000010000000000000000000000000000000040000000000000000000000000000",
      "transactionHash": "0xe51e1c82ab5632e30b8079ed6b14499d6acab83d9a6a0e9f8c7c1bd47518d351",
      "transactionIndex": "0x8e",
      "blockHash": "0xab44912e05eb0285e634392f19edbd193d43c1a1b85c634a872ef30e4b936b98",
      "blockNumber": "0xa84fc3",
      "gasUsed": "0xb389",
      "effectiveGasPrice": "0x16c5964a7",
      "from": "0x5587fd98f5b5d8d0ddc09e49cddd08771bf0be1a",
      "to": "0xd2b4047843ea81bff25cc022cc045888a93f3fa2",
      "contractAddress": null
    },
    {
      "type": "0x2",
      "status": "0x1",
      "cumulativeGasUsed": "0xd01e2d",
      "logs": [
        {
          "address": "0x9165e5ec71d2815d6681f96364a10ed708ab85c4",
          "topics": [
            "0x60419e729b02f0ff9742581bf3e9d852f84f7949bc004d7a18a44148bbb4480a"
          ],
          "data": "0x0000000000000000000000000000000000000000000000000de0b6b3a76400000000000000000000000000000000000000000000000000000de0b6b3a76400000000000000000000000000000000000000000000000000000000000000000000000000000000000000000000000000000000000000000000000000006a298004",
          "blockHash": "0xab44912e05eb0285e634392f19edbd193d43c1a1b85c634a872ef30e4b936b98",
          "blockNumber": "0xa84fc3",
          "blockTimestamp": "0x6a298004",
          "transactionHash": "0x742ae0a1f771a8613e52d8ebf08797cdc64160f8b1a5913cae152aa87f2627ef",
          "transactionIndex": "0x8f",
          "logIndex": "0x1b9",
          "removed": false
        },
        {
          "address": "0x80fe0ec30c29b0c4c996b463b6869060b7c74a75",
          "topics": [
            "0x40e9cecb9f5f1f1c5b9c97dec2917b7ee92e57ba5563708daca94dd84ad7112f",
            "0x22d8b533a964aa3746ea32722f70bbc2f3a073f9e4ace158cb16f1726c84d33d",
            "0x000000000000000000000000a088341c5fad8115b2bc6b503467e39b47d45936"
          ],
          "data": "0x00000000000000000000000000000000000000000000005a5b92b0fd4a5e80d9fffffffffffffffffffffffffffffffffffffffffffffde1e61f36454dc000000000000000000000000000000000000000000002ffbe76c8b4395810618a05ca00000000000000000000000000000000000000000000021e19e0c9bab240000000000000000000000000000000000000000000000000000000000000000055ce00000000000000000000000000000000000000000000000000000000000001f4",
          "blockHash": "0xab44912e05eb0285e634392f19edbd193d43c1a1b85c634a872ef30e4b936b98",
          "blockNumber": "0xa84fc3",
          "blockTimestamp": "0x6a298004",
          "transactionHash": "0x742ae0a1f771a8613e52d8ebf08797cdc64160f8b1a5913cae152aa87f2627ef",
          "transactionIndex": "0x8f",
          "logIndex": "0x1ba",
          "removed": false
        },
        {
          "address": "0x6f1947c64569bc394ccb312efe12aa7aa7c49fda",
          "topics": [
            "0xddf252ad1be2c89b69c2b068fc378daa952ba7f163c4a11628f55a4df523b3ef",
            "0x00000000000000000000000080fe0ec30c29b0c4c996b463b6869060b7c74a75",
            "0x0000000000000000000000009165e5ec71d2815d6681f96364a10ed708ab85c4"
          ],
          "data": "0x00000000000000000000000000000000000000000000000004a056275f4c4e91",
          "blockHash": "0xab44912e05eb0285e634392f19edbd193d43c1a1b85c634a872ef30e4b936b98",
          "blockNumber": "0xa84fc3",
          "blockTimestamp": "0x6a298004",
          "transactionHash": "0x742ae0a1f771a8613e52d8ebf08797cdc64160f8b1a5913cae152aa87f2627ef",
          "transactionIndex": "0x8f",
          "logIndex": "0x1bb",
          "removed": false
        },
        {
          "address": "0x6f1947c64569bc394ccb312efe12aa7aa7c49fda",
          "topics": [
            "0x8c5be1e5ebec7d5bd14f71427d1e84f3dd0314c0f7b2291e5b200ac8c7c3b925",
            "0x0000000000000000000000009165e5ec71d2815d6681f96364a10ed708ab85c4",
            "0x000000000000000000000000b651ea78a4388b8813e85f4479ddc4be78977f3b"
          ],
          "data": "0x00000000000000000000000000000000000000000000000004a056275f4c4e91",
          "blockHash": "0xab44912e05eb0285e634392f19edbd193d43c1a1b85c634a872ef30e4b936b98",
          "blockNumber": "0xa84fc3",
          "blockTimestamp": "0x6a298004",
          "transactionHash": "0x742ae0a1f771a8613e52d8ebf08797cdc64160f8b1a5913cae152aa87f2627ef",
          "transactionIndex": "0x8f",
          "logIndex": "0x1bc",
          "removed": false
        },
        {
          "address": "0x6f1947c64569bc394ccb312efe12aa7aa7c49fda",
          "topics": [
            "0xddf252ad1be2c89b69c2b068fc378daa952ba7f163c4a11628f55a4df523b3ef",
            "0x0000000000000000000000009165e5ec71d2815d6681f96364a10ed708ab85c4",
            "0x000000000000000000000000b651ea78a4388b8813e85f4479ddc4be78977f3b"
          ],
          "data": "0x00000000000000000000000000000000000000000000000004a056275f4c4e91",
          "blockHash": "0xab44912e05eb0285e634392f19edbd193d43c1a1b85c634a872ef30e4b936b98",
          "blockNumber": "0xa84fc3",
          "blockTimestamp": "0x6a298004",
          "transactionHash": "0x742ae0a1f771a8613e52d8ebf08797cdc64160f8b1a5913cae152aa87f2627ef",
          "transactionIndex": "0x8f",
          "logIndex": "0x1bd",
          "removed": false
        },
        {
          "address": "0xd2b4047843ea81bff25cc022cc045888a93f3fa2",
          "topics": [
            "0xddf252ad1be2c89b69c2b068fc378daa952ba7f163c4a11628f55a4df523b3ef",
            "0x000000000000000000000000b651ea78a4388b8813e85f4479ddc4be78977f3b",
            "0x0000000000000000000000009165e5ec71d2815d6681f96364a10ed708ab85c4"
          ],
          "data": "0x00000000000000000000000000000000000000000000000004a056275f4c4e91",
          "blockHash": "0xab44912e05eb0285e634392f19edbd193d43c1a1b85c634a872ef30e4b936b98",
          "blockNumber": "0xa84fc3",
          "blockTimestamp": "0x6a298004",
          "transactionHash": "0x742ae0a1f771a8613e52d8ebf08797cdc64160f8b1a5913cae152aa87f2627ef",
          "transactionIndex": "0x8f",
          "logIndex": "0x1be",
          "removed": false
        },
        {
          "address": "0xb651ea78a4388b8813e85f4479ddc4be78977f3b",
          "topics": [
            "0xaf3d3c43bc19cfa1dc2cc14eb7bae4a91e33127152762973bf23367da0496d69",
            "0x0000000000000000000000006f1947c64569bc394ccb312efe12aa7aa7c49fda",
            "0x0000000000000000000000009165e5ec71d2815d6681f96364a10ed708ab85c4"
          ],
          "data": "0x0000000000000000000000000000000000000000000069e120678fe39fc5e32500000000000000000000000000000000000000000000000004a056275f4c4e91",
          "blockHash": "0xab44912e05eb0285e634392f19edbd193d43c1a1b85c634a872ef30e4b936b98",
          "blockNumber": "0xa84fc3",
          "blockTimestamp": "0x6a298004",
          "transactionHash": "0x742ae0a1f771a8613e52d8ebf08797cdc64160f8b1a5913cae152aa87f2627ef",
          "transactionIndex": "0x8f",
          "logIndex": "0x1bf",
          "removed": false
        },
        {
          "address": "0xb651ea78a4388b8813e85f4479ddc4be78977f3b",
          "topics": [
            "0xaf3d3c43bc19cfa1dc2cc14eb7bae4a91e33127152762973bf23367da0496d69",
            "0x000000000000000000000000d2b4047843ea81bff25cc022cc045888a93f3fa2",
            "0x0000000000000000000000009165e5ec71d2815d6681f96364a10ed708ab85c4"
          ],
          "data": "0x0000000000000000000000000000000000000000000069e0fb673d0a013a1cdbfffffffffffffffffffffffffffffffffffffffffffffffffb5fa9d8a0b3b16f",
          "blockHash": "0xab44912e05eb0285e634392f19edbd193d43c1a1b85c634a872ef30e4b936b98",
          "blockNumber": "0xa84fc3",
          "blockTimestamp": "0x6a298004",
          "transactionHash": "0x742ae0a1f771a8613e52d8ebf08797cdc64160f8b1a5913cae152aa87f2627ef",
          "transactionIndex": "0x8f",
          "logIndex": "0x1c0",
          "removed": false
        },
        {
          "address": "0xb651ea78a4388b8813e85f4479ddc4be78977f3b",
          "topics": [
            "0x902ab2223b65a639ed4b0a84d023660d162a68faa0ab33a023094ae44708bb6a",
            "0x0000000000000000000000009165e5ec71d2815d6681f96364a10ed708ab85c4"
          ],
          "data": "0x0000000000000000000000000000000000000000000069e0fb673d0a013a1cdbfffffffffffffffffffffffffffffffffffffffffffffffffb5fa9d8a0b3b16f",
          "blockHash": "0xab44912e05eb0285e634392f19edbd193d43c1a1b85c634a872ef30e4b936b98",
          "blockNumber": "0xa84fc3",
          "blockTimestamp": "0x6a298004",
          "transactionHash": "0x742ae0a1f771a8613e52d8ebf08797cdc64160f8b1a5913cae152aa87f2627ef",
          "transactionIndex": "0x8f",
          "logIndex": "0x1c1",
          "removed": false
        },
        {
          "address": "0xd2b4047843ea81bff25cc022cc045888a93f3fa2",
          "topics": [
            "0x8c5be1e5ebec7d5bd14f71427d1e84f3dd0314c0f7b2291e5b200ac8c7c3b925",
            "0x0000000000000000000000009165e5ec71d2815d6681f96364a10ed708ab85c4",
            "0x00000000000000000000000062471b05d0f4fbb9df314406b79f433f1ec818b0"
          ],
          "data": "0x00000000000000000000000000000000000000000000000004a056275f4c4e91",
          "blockHash": "0xab44912e05eb0285e634392f19edbd193d43c1a1b85c634a872ef30e4b936b98",
          "blockNumber": "0xa84fc3",
          "blockTimestamp": "0x6a298004",
          "transactionHash": "0x742ae0a1f771a8613e52d8ebf08797cdc64160f8b1a5913cae152aa87f2627ef",
          "transactionIndex": "0x8f",
          "logIndex": "0x1c2",
          "removed": false
        },
        {
          "address": "0xd2b4047843ea81bff25cc022cc045888a93f3fa2",
          "topics": [
            "0xddf252ad1be2c89b69c2b068fc378daa952ba7f163c4a11628f55a4df523b3ef",
            "0x0000000000000000000000009165e5ec71d2815d6681f96364a10ed708ab85c4",
            "0x00000000000000000000000062471b05d0f4fbb9df314406b79f433f1ec818b0"
          ],
          "data": "0x00000000000000000000000000000000000000000000000004a056275f4c4e91",
          "blockHash": "0xab44912e05eb0285e634392f19edbd193d43c1a1b85c634a872ef30e4b936b98",
          "blockNumber": "0xa84fc3",
          "blockTimestamp": "0x6a298004",
          "transactionHash": "0x742ae0a1f771a8613e52d8ebf08797cdc64160f8b1a5913cae152aa87f2627ef",
          "transactionIndex": "0x8f",
          "logIndex": "0x1c3",
          "removed": false
        },
        {
          "address": "0x62471b05d0f4fbb9df314406b79f433f1ec818b0",
          "topics": [
            "0xddf252ad1be2c89b69c2b068fc378daa952ba7f163c4a11628f55a4df523b3ef",
            "0x0000000000000000000000000000000000000000000000000000000000000000",
            "0x00000000000000000000000062471b05d0f4fbb9df314406b79f433f1ec818b0"
          ],
          "data": "0x00000000000000000000000000000000000000000000000004a056275f4c4e91",
          "blockHash": "0xab44912e05eb0285e634392f19edbd193d43c1a1b85c634a872ef30e4b936b98",
          "blockNumber": "0xa84fc3",
          "blockTimestamp": "0x6a298004",
          "transactionHash": "0x742ae0a1f771a8613e52d8ebf08797cdc64160f8b1a5913cae152aa87f2627ef",
          "transactionIndex": "0x8f",
          "logIndex": "0x1c4",
          "removed": false
        },
        {
          "address": "0x62471b05d0f4fbb9df314406b79f433f1ec818b0",
          "topics": [
            "0xdcbc1c05240f31ff3ad067ef1ee35ce4997762752e3a095284754544f4c709d7",
            "0x0000000000000000000000009165e5ec71d2815d6681f96364a10ed708ab85c4",
            "0x00000000000000000000000062471b05d0f4fbb9df314406b79f433f1ec818b0"
          ],
          "data": "0x00000000000000000000000000000000000000000000000004a056275f4c4e9100000000000000000000000000000000000000000000000004a056275f4c4e91",
          "blockHash": "0xab44912e05eb0285e634392f19edbd193d43c1a1b85c634a872ef30e4b936b98",
          "blockNumber": "0xa84fc3",
          "blockTimestamp": "0x6a298004",
          "transactionHash": "0x742ae0a1f771a8613e52d8ebf08797cdc64160f8b1a5913cae152aa87f2627ef",
          "transactionIndex": "0x8f",
          "logIndex": "0x1c5",
          "removed": false
        },
        {
          "address": "0x924b2aec4657d68bfcd7b6d908d45403bdfc5c9f",
          "topics": [
            "0x1b3d7edb2e9c0b0e7c525b20aaaef0f5940d2ed71663c7d39266ecafac728859",
            "0x0000000000000000000000000000000000000000000000000000000000000000",
            "0x000000000000000000000000a088341c5fad8115b2bc6b503467e39b47d45936",
            "0x0000000000000000000000000000000000000000000000000000000000000001"
          ],
          "data": "0x0000000000000000000000009165e5ec71d2815d6681f96364a10ed708ab85c4000000000000000000000000000000000000000000000000000bd7e6cb31672f",
          "blockHash": "0xab44912e05eb0285e634392f19edbd193d43c1a1b85c634a872ef30e4b936b98",
          "blockNumber": "0xa84fc3",
          "blockTimestamp": "0x6a298004",
          "transactionHash": "0x742ae0a1f771a8613e52d8ebf08797cdc64160f8b1a5913cae152aa87f2627ef",
          "transactionIndex": "0x8f",
          "logIndex": "0x1c6",
          "removed": false
        },
        {
          "address": "0x9165e5ec71d2815d6681f96364a10ed708ab85c4",
          "topics": [
            "0x143f277ab7631008a141d4adfe06e8b7c5a169fc406e826eb1c53e4ca6f6e0af",
            "0x22d8b533a964aa3746ea32722f70bbc2f3a073f9e4ace158cb16f1726c84d33d",
            "0x000000000000000000000000a088341c5fad8115b2bc6b503467e39b47d45936"
          ],
          "data": "0x0000000000000000000000006f1947c64569bc394ccb312efe12aa7aa7c49fda00000000000000000000000000000000000000000000000004a056275f4c4e9100000000000000000000000000000000000000000000000004a056275f4c4e910000000000000000000000000000000000000000000000000000000000000002",
          "blockHash": "0xab44912e05eb0285e634392f19edbd193d43c1a1b85c634a872ef30e4b936b98",
          "blockNumber": "0xa84fc3",
          "blockTimestamp": "0x6a298004",
          "transactionHash": "0x742ae0a1f771a8613e52d8ebf08797cdc64160f8b1a5913cae152aa87f2627ef",
          "transactionIndex": "0x8f",
          "logIndex": "0x1c7",
          "removed": false
        },
        {
          "address": "0x9165e5ec71d2815d6681f96364a10ed708ab85c4",
          "topics": [
            "0x179d4530c0170f3435081eb9e0c14edc5c87c5e8708c2a5e94caba45fa687a9f",
            "0x22d8b533a964aa3746ea32722f70bbc2f3a073f9e4ace158cb16f1726c84d33d"
          ],
          "data": "0x0000000000000000000000006f1947c64569bc394ccb312efe12aa7aa7c49fda00000000000000000000000000000000000000000000000004a056275f4c4e9100000000000000000000000000000000000000000000000004a056275f4c4e91",
          "blockHash": "0xab44912e05eb0285e634392f19edbd193d43c1a1b85c634a872ef30e4b936b98",
          "blockNumber": "0xa84fc3",
          "blockTimestamp": "0x6a298004",
          "transactionHash": "0x742ae0a1f771a8613e52d8ebf08797cdc64160f8b1a5913cae152aa87f2627ef",
          "transactionIndex": "0x8f",
          "logIndex": "0x1c8",
          "removed": false
        },
        {
          "address": "0xd2b4047843ea81bff25cc022cc045888a93f3fa2",
          "topics": [
            "0xddf252ad1be2c89b69c2b068fc378daa952ba7f163c4a11628f55a4df523b3ef",
            "0x0000000000000000000000005587fd98f5b5d8d0ddc09e49cddd08771bf0be1a",
            "0x00000000000000000000000080fe0ec30c29b0c4c996b463b6869060b7c74a75"
          ],
          "data": "0x00000000000000000000000000000000000000000000021e19e0c9bab2400000",
          "blockHash": "0xab44912e05eb0285e634392f19edbd193d43c1a1b85c634a872ef30e4b936b98",
          "blockNumber": "0xa84fc3",
          "blockTimestamp": "0x6a298004",
          "transactionHash": "0x742ae0a1f771a8613e52d8ebf08797cdc64160f8b1a5913cae152aa87f2627ef",
          "transactionIndex": "0x8f",
          "logIndex": "0x1c9",
          "removed": false
        },
        {
          "address": "0x6f1947c64569bc394ccb312efe12aa7aa7c49fda",
          "topics": [
            "0xddf252ad1be2c89b69c2b068fc378daa952ba7f163c4a11628f55a4df523b3ef",
            "0x00000000000000000000000080fe0ec30c29b0c4c996b463b6869060b7c74a75",
            "0x0000000000000000000000005587fd98f5b5d8d0ddc09e49cddd08771bf0be1a"
          ],
          "data": "0x00000000000000000000000000000000000000000000005a56f25ad5eb123248",
          "blockHash": "0xab44912e05eb0285e634392f19edbd193d43c1a1b85c634a872ef30e4b936b98",
          "blockNumber": "0xa84fc3",
          "blockTimestamp": "0x6a298004",
          "transactionHash": "0x742ae0a1f771a8613e52d8ebf08797cdc64160f8b1a5913cae152aa87f2627ef",
          "transactionIndex": "0x8f",
          "logIndex": "0x1ca",
          "removed": false
        }
      ],
      "logsBloom": "0x0000000800000000000000000000000000000000000000040102100040000000010000000000000000001400000800008040000004000000010000020024000000000240290000000002000800080c010000090000040020010000000080000000000080020000000000000002000800080000000005000000010150000000000000400000000000000000000000200004000008008020000081000000000040020000000080000000000000001060000044000000800000000000000000000000002002100000000000000000080000000000000008010040004000000160000010000000000000004000000000000000040000000000040000020804000200",
      "transactionHash": "0x742ae0a1f771a8613e52d8ebf08797cdc64160f8b1a5913cae152aa87f2627ef",
      "transactionIndex": "0x8f",
      "blockHash": "0xab44912e05eb0285e634392f19edbd193d43c1a1b85c634a872ef30e4b936b98",
      "blockNumber": "0xa84fc3",
      "gasUsed": "0x47dc8",
      "effectiveGasPrice": "0x16c5964a7",
      "from": "0x5587fd98f5b5d8d0ddc09e49cddd08771bf0be1a",
      "to": "0xa088341c5fad8115b2bc6b503467e39b47d45936",
      "contractAddress": null
    },
    {
      "type": "0x2",
      "status": "0x1",
      "cumulativeGasUsed": "0xd08e16",
      "logs": [],
      "logsBloom": "0x00000000000000000000000000000000000000000000000000000000000000000000000000000000000000000000000000000000000000000000000000000000000000000000000000000000000000000000000000000000000000000000000000000000000000000000000000000000000000000000000000000000000000000000000000000000000000000000000000000000000000000000000000000000000000000000000000000000000000000000000000000000000000000000000000000000000000000000000000000000000000000000000000000000000000000000000000000000000000000000000000000000000000000000000000000000",
      "transactionHash": "0x6699dfa12c5f9ad79c3f737fdeb5e6d0c78235f8cb66fafdc535394b1bf543c1",
      "transactionIndex": "0x90",
      "blockHash": "0xab44912e05eb0285e634392f19edbd193d43c1a1b85c634a872ef30e4b936b98",
      "blockNumber": "0xa84fc3",
      "gasUsed": "0x6fe9",
      "effectiveGasPrice": "0x16c5964a7",
      "from": "0x5587fd98f5b5d8d0ddc09e49cddd08771bf0be1a",
      "to": "0x958979f81f32630483189695add36c8fe123ed71",
      "contractAddress": null
    },
    {
      "type": "0x2",
      "status": "0x1",
      "cumulativeGasUsed": "0xd112b8",
      "logs": [
        {
          "address": "0xd2b4047843ea81bff25cc022cc045888a93f3fa2",
          "topics": [
            "0xddf252ad1be2c89b69c2b068fc378daa952ba7f163c4a11628f55a4df523b3ef",
            "0x0000000000000000000000000000000000000000000000000000000000000000",
            "0x0000000000000000000000005587fd98f5b5d8d0ddc09e49cddd08771bf0be1a"
          ],
          "data": "0x00000000000000000000000000000000000000000000021e19e0c9bab2400000",
          "blockHash": "0xab44912e05eb0285e634392f19edbd193d43c1a1b85c634a872ef30e4b936b98",
          "blockNumber": "0xa84fc3",
          "blockTimestamp": "0x6a298004",
          "transactionHash": "0x6d1c2f58f6c7cc8772691bfd99922915367404331b04ffa2dd9d091fb4dd8699",
          "transactionIndex": "0x91",
          "logIndex": "0x1cb",
          "removed": false
        }
      ],
      "logsBloom": "0x00000008000000000000000000000000000000000000000000000000000000000000000000000000000000000000000000000000000000000000000000000000000000002000000000020008000000010000000000000000000000000000000000000000020000000000000000000800000000000000000000000010000000000000000000000000000000000000000000000000000000000081000000000000000000000000000000000000000000000000000000000000000000000000000000000002000000000000000000000000000000000000000000000000000020000000000000000000000000000000000000000000000000000000000000000000",
      "transactionHash": "0x6d1c2f58f6c7cc8772691bfd99922915367404331b04ffa2dd9d091fb4dd8699",
      "transactionIndex": "0x91",
      "blockHash": "0xab44912e05eb0285e634392f19edbd193d43c1a1b85c634a872ef30e4b936b98",
      "blockNumber": "0xa84fc3",
      "gasUsed": "0x84a2",
      "effectiveGasPrice": "0x16c5964a7",
      "from": "0x5587fd98f5b5d8d0ddc09e49cddd08771bf0be1a",
      "to": "0xd2b4047843ea81bff25cc022cc045888a93f3fa2",
      "contractAddress": null
    },
    {
      "type": "0x2",
      "status": "0x1",
      "cumulativeGasUsed": "0xd1c641",
      "logs": [
        {
          "address": "0xd2b4047843ea81bff25cc022cc045888a93f3fa2",
          "topics": [
            "0x8c5be1e5ebec7d5bd14f71427d1e84f3dd0314c0f7b2291e5b200ac8c7c3b925",
            "0x0000000000000000000000005587fd98f5b5d8d0ddc09e49cddd08771bf0be1a",
            "0x000000000000000000000000a088341c5fad8115b2bc6b503467e39b47d45936"
          ],
          "data": "0x00000000000000000000000000000000000000000000021e19e0c9bab2400000",
          "blockHash": "0xab44912e05eb0285e634392f19edbd193d43c1a1b85c634a872ef30e4b936b98",
          "blockNumber": "0xa84fc3",
          "blockTimestamp": "0x6a298004",
          "transactionHash": "0x44fbb6001b38ae707c48d69b28a235e7046bc1f85112c6e91f9f19676566c2e4",
          "transactionIndex": "0x92",
          "logIndex": "0x1cc",
          "removed": false
        }
      ],
      "logsBloom": "0x00000008000000000000000000000000000000000000000000000000000000000000000000000000000000000000000000000000000000000000000000200000000000002000000000020000000000010000000000000000000000000000000000000000000000000000000000000000080000000000000000000040000000000000000000000000000000000000000000000000000000000081000000000000020000000000000000000000000000000000000000000000000000000000000000000000000000000000000000000000000000000000000000000000000000000010000000000000000000000000000000040000000000000000000000000000",
      "transactionHash": "0x44fbb6001b38ae707c48d69b28a235e7046bc1f85112c6e91f9f19676566c2e4",
      "transactionIndex": "0x92",
      "blockHash": "0xab44912e05eb0285e634392f19edbd193d43c1a1b85c634a872ef30e4b936b98",
      "blockNumber": "0xa84fc3",
      "gasUsed": "0xb389",
      "effectiveGasPrice": "0x16c5964a7",
      "from": "0x5587fd98f5b5d8d0ddc09e49cddd08771bf0be1a",
      "to": "0xd2b4047843ea81bff25cc022cc045888a93f3fa2",
      "contractAddress": null
    },
    {
      "type": "0x2",
      "status": "0x1",
      "cumulativeGasUsed": "0xd630dc",
      "logs": [
        {
          "address": "0x9165e5ec71d2815d6681f96364a10ed708ab85c4",
          "topics": [
            "0x60419e729b02f0ff9742581bf3e9d852f84f7949bc004d7a18a44148bbb4480a"
          ],
          "data": "0x0000000000000000000000000000000000000000000000000de0b6b3a76400000000000000000000000000000000000000000000000000000de0b6b3a76400000000000000000000000000000000000000000000000000000000000000000000000000000000000000000000000000000000000000000000000000006a298004",
          "blockHash": "0xab44912e05eb0285e634392f19edbd193d43c1a1b85c634a872ef30e4b936b98",
          "blockNumber": "0xa84fc3",
          "blockTimestamp": "0x6a298004",
          "transactionHash": "0x06979de07a6163a4b3802f68071e71e604efc5ab9baad40322ce5ca706390f88",
          "transactionIndex": "0x93",
          "logIndex": "0x1cd",
          "removed": false
        },
        {
          "address": "0x80fe0ec30c29b0c4c996b463b6869060b7c74a75",
          "topics": [
            "0x40e9cecb9f5f1f1c5b9c97dec2917b7ee92e57ba5563708daca94dd84ad7112f",
            "0x22d8b533a964aa3746ea32722f70bbc2f3a073f9e4ace158cb16f1726c84d33d",
            "0x000000000000000000000000a088341c5fad8115b2bc6b503467e39b47d45936"
          ],
          "data": "0x00000000000000000000000000000000000000000000002d2f3b96f610dc9210fffffffffffffffffffffffffffffffffffffffffffffde1e61f36454dc000000000000000000000000000000000000000000003ff9db22d0e56041892b0ef4200000000000000000000000000000000000000000000021e19e0c9bab24000000000000000000000000000000000000000000000000000000000000000006c4700000000000000000000000000000000000000000000000000000000000001f4",
          "blockHash": "0xab44912e05eb0285e634392f19edbd193d43c1a1b85c634a872ef30e4b936b98",
          "blockNumber": "0xa84fc3",
          "blockTimestamp": "0x6a298004",
          "transactionHash": "0x06979de07a6163a4b3802f68071e71e604efc5ab9baad40322ce5ca706390f88",
          "transactionIndex": "0x93",
          "logIndex": "0x1ce",
          "removed": false
        },
        {
          "address": "0x6f1947c64569bc394ccb312efe12aa7aa7c49fda",
          "topics": [
            "0xddf252ad1be2c89b69c2b068fc378daa952ba7f163c4a11628f55a4df523b3ef",
            "0x00000000000000000000000080fe0ec30c29b0c4c996b463b6869060b7c74a75",
            "0x0000000000000000000000009165e5ec71d2815d6681f96364a10ed708ab85c4"
          ],
          "data": "0x00000000000000000000000000000000000000000000000002503e088c64ce43",
          "blockHash": "0xab44912e05eb0285e634392f19edbd193d43c1a1b85c634a872ef30e4b936b98",
          "blockNumber": "0xa84fc3",
          "blockTimestamp": "0x6a298004",
          "transactionHash": "0x06979de07a6163a4b3802f68071e71e604efc5ab9baad40322ce5ca706390f88",
          "transactionIndex": "0x93",
          "logIndex": "0x1cf",
          "removed": false
        },
        {
          "address": "0x6f1947c64569bc394ccb312efe12aa7aa7c49fda",
          "topics": [
            "0x8c5be1e5ebec7d5bd14f71427d1e84f3dd0314c0f7b2291e5b200ac8c7c3b925",
            "0x0000000000000000000000009165e5ec71d2815d6681f96364a10ed708ab85c4",
            "0x000000000000000000000000b651ea78a4388b8813e85f4479ddc4be78977f3b"
          ],
          "data": "0x00000000000000000000000000000000000000000000000002503e088c64ce43",
          "blockHash": "0xab44912e05eb0285e634392f19edbd193d43c1a1b85c634a872ef30e4b936b98",
          "blockNumber": "0xa84fc3",
          "blockTimestamp": "0x6a298004",
          "transactionHash": "0x06979de07a6163a4b3802f68071e71e604efc5ab9baad40322ce5ca706390f88",
          "transactionIndex": "0x93",
          "logIndex": "0x1d0",
          "removed": false
        },
        {
          "address": "0x6f1947c64569bc394ccb312efe12aa7aa7c49fda",
          "topics": [
            "0xddf252ad1be2c89b69c2b068fc378daa952ba7f163c4a11628f55a4df523b3ef",
            "0x0000000000000000000000009165e5ec71d2815d6681f96364a10ed708ab85c4",
            "0x000000000000000000000000b651ea78a4388b8813e85f4479ddc4be78977f3b"
          ],
          "data": "0x00000000000000000000000000000000000000000000000002503e088c64ce43",
          "blockHash": "0xab44912e05eb0285e634392f19edbd193d43c1a1b85c634a872ef30e4b936b98",
          "blockNumber": "0xa84fc3",
          "blockTimestamp": "0x6a298004",
          "transactionHash": "0x06979de07a6163a4b3802f68071e71e604efc5ab9baad40322ce5ca706390f88",
          "transactionIndex": "0x93",
          "logIndex": "0x1d1",
          "removed": false
        },
        {
          "address": "0xd2b4047843ea81bff25cc022cc045888a93f3fa2",
          "topics": [
            "0xddf252ad1be2c89b69c2b068fc378daa952ba7f163c4a11628f55a4df523b3ef",
            "0x000000000000000000000000b651ea78a4388b8813e85f4479ddc4be78977f3b",
            "0x0000000000000000000000009165e5ec71d2815d6681f96364a10ed708ab85c4"
          ],
          "data": "0x00000000000000000000000000000000000000000000000002503e088c64ce43",
          "blockHash": "0xab44912e05eb0285e634392f19edbd193d43c1a1b85c634a872ef30e4b936b98",
          "blockNumber": "0xa84fc3",
          "blockTimestamp": "0x6a298004",
          "transactionHash": "0x06979de07a6163a4b3802f68071e71e604efc5ab9baad40322ce5ca706390f88",
          "transactionIndex": "0x93",
          "logIndex": "0x1d2",
          "removed": false
        },
        {
          "address": "0xb651ea78a4388b8813e85f4479ddc4be78977f3b",
          "topics": [
            "0xaf3d3c43bc19cfa1dc2cc14eb7bae4a91e33127152762973bf23367da0496d69",
            "0x0000000000000000000000006f1947c64569bc394ccb312efe12aa7aa7c49fda",
            "0x0000000000000000000000009165e5ec71d2815d6681f96364a10ed708ab85c4"
          ],
          "data": "0x0000000000000000000000000000000000000000000069e122b7cdec2c2ab16800000000000000000000000000000000000000000000000002503e088c64ce43",
          "blockHash": "0xab44912e05eb0285e634392f19edbd193d43c1a1b85c634a872ef30e4b936b98",
          "blockNumber": "0xa84fc3",
          "blockTimestamp": "0x6a298004",
          "transactionHash": "0x06979de07a6163a4b3802f68071e71e604efc5ab9baad40322ce5ca706390f88",
          "transactionIndex": "0x93",
          "logIndex": "0x1d3",
          "removed": false
        },
        {
          "address": "0xb651ea78a4388b8813e85f4479ddc4be78977f3b",
          "topics": [
            "0xaf3d3c43bc19cfa1dc2cc14eb7bae4a91e33127152762973bf23367da0496d69",
            "0x000000000000000000000000d2b4047843ea81bff25cc022cc045888a93f3fa2",
            "0x0000000000000000000000009165e5ec71d2815d6681f96364a10ed708ab85c4"
          ],
          "data": "0x0000000000000000000000000000000000000000000069e0f916ff0174d54e98fffffffffffffffffffffffffffffffffffffffffffffffffdafc1f7739b31bd",
          "blockHash": "0xab44912e05eb0285e634392f19edbd193d43c1a1b85c634a872ef30e4b936b98",
          "blockNumber": "0xa84fc3",
          "blockTimestamp": "0x6a298004",
          "transactionHash": "0x06979de07a6163a4b3802f68071e71e604efc5ab9baad40322ce5ca706390f88",
          "transactionIndex": "0x93",
          "logIndex": "0x1d4",
          "removed": false
        },
        {
          "address": "0xb651ea78a4388b8813e85f4479ddc4be78977f3b",
          "topics": [
            "0x902ab2223b65a639ed4b0a84d023660d162a68faa0ab33a023094ae44708bb6a",
            "0x0000000000000000000000009165e5ec71d2815d6681f96364a10ed708ab85c4"
          ],
          "data": "0x0000000000000000000000000000000000000000000069e0f916ff0174d54e98fffffffffffffffffffffffffffffffffffffffffffffffffdafc1f7739b31bd",
          "blockHash": "0xab44912e05eb0285e634392f19edbd193d43c1a1b85c634a872ef30e4b936b98",
          "blockNumber": "0xa84fc3",
          "blockTimestamp": "0x6a298004",
          "transactionHash": "0x06979de07a6163a4b3802f68071e71e604efc5ab9baad40322ce5ca706390f88",
          "transactionIndex": "0x93",
          "logIndex": "0x1d5",
          "removed": false
        },
        {
          "address": "0xd2b4047843ea81bff25cc022cc045888a93f3fa2",
          "topics": [
            "0x8c5be1e5ebec7d5bd14f71427d1e84f3dd0314c0f7b2291e5b200ac8c7c3b925",
            "0x0000000000000000000000009165e5ec71d2815d6681f96364a10ed708ab85c4",
            "0x00000000000000000000000062471b05d0f4fbb9df314406b79f433f1ec818b0"
          ],
          "data": "0x00000000000000000000000000000000000000000000000002503e088c64ce43",
          "blockHash": "0xab44912e05eb0285e634392f19edbd193d43c1a1b85c634a872ef30e4b936b98",
          "blockNumber": "0xa84fc3",
          "blockTimestamp": "0x6a298004",
          "transactionHash": "0x06979de07a6163a4b3802f68071e71e604efc5ab9baad40322ce5ca706390f88",
          "transactionIndex": "0x93",
          "logIndex": "0x1d6",
          "removed": false
        },
        {
          "address": "0xd2b4047843ea81bff25cc022cc045888a93f3fa2",
          "topics": [
            "0xddf252ad1be2c89b69c2b068fc378daa952ba7f163c4a11628f55a4df523b3ef",
            "0x0000000000000000000000009165e5ec71d2815d6681f96364a10ed708ab85c4",
            "0x00000000000000000000000062471b05d0f4fbb9df314406b79f433f1ec818b0"
          ],
          "data": "0x00000000000000000000000000000000000000000000000002503e088c64ce43",
          "blockHash": "0xab44912e05eb0285e634392f19edbd193d43c1a1b85c634a872ef30e4b936b98",
          "blockNumber": "0xa84fc3",
          "blockTimestamp": "0x6a298004",
          "transactionHash": "0x06979de07a6163a4b3802f68071e71e604efc5ab9baad40322ce5ca706390f88",
          "transactionIndex": "0x93",
          "logIndex": "0x1d7",
          "removed": false
        },
        {
          "address": "0x62471b05d0f4fbb9df314406b79f433f1ec818b0",
          "topics": [
            "0xddf252ad1be2c89b69c2b068fc378daa952ba7f163c4a11628f55a4df523b3ef",
            "0x0000000000000000000000000000000000000000000000000000000000000000",
            "0x00000000000000000000000062471b05d0f4fbb9df314406b79f433f1ec818b0"
          ],
          "data": "0x00000000000000000000000000000000000000000000000002503e088c64ce43",
          "blockHash": "0xab44912e05eb0285e634392f19edbd193d43c1a1b85c634a872ef30e4b936b98",
          "blockNumber": "0xa84fc3",
          "blockTimestamp": "0x6a298004",
          "transactionHash": "0x06979de07a6163a4b3802f68071e71e604efc5ab9baad40322ce5ca706390f88",
          "transactionIndex": "0x93",
          "logIndex": "0x1d8",
          "removed": false
        },
        {
          "address": "0x62471b05d0f4fbb9df314406b79f433f1ec818b0",
          "topics": [
            "0xdcbc1c05240f31ff3ad067ef1ee35ce4997762752e3a095284754544f4c709d7",
            "0x0000000000000000000000009165e5ec71d2815d6681f96364a10ed708ab85c4",
            "0x00000000000000000000000062471b05d0f4fbb9df314406b79f433f1ec818b0"
          ],
          "data": "0x00000000000000000000000000000000000000000000000002503e088c64ce4300000000000000000000000000000000000000000000000002503e088c64ce43",
          "blockHash": "0xab44912e05eb0285e634392f19edbd193d43c1a1b85c634a872ef30e4b936b98",
          "blockNumber": "0xa84fc3",
          "blockTimestamp": "0x6a298004",
          "transactionHash": "0x06979de07a6163a4b3802f68071e71e604efc5ab9baad40322ce5ca706390f88",
          "transactionIndex": "0x93",
          "logIndex": "0x1d9",
          "removed": false
        },
        {
          "address": "0x924b2aec4657d68bfcd7b6d908d45403bdfc5c9f",
          "topics": [
            "0x1b3d7edb2e9c0b0e7c525b20aaaef0f5940d2ed71663c7d39266ecafac728859",
            "0x0000000000000000000000000000000000000000000000000000000000000000",
            "0x000000000000000000000000a088341c5fad8115b2bc6b503467e39b47d45936",
            "0x0000000000000000000000000000000000000000000000000000000000000001"
          ],
          "data": "0x0000000000000000000000009165e5ec71d2815d6681f96364a10ed708ab85c40000000000000000000000000000000000000000000000000005ec23ecec872e",
          "blockHash": "0xab44912e05eb0285e634392f19edbd193d43c1a1b85c634a872ef30e4b936b98",
          "blockNumber": "0xa84fc3",
          "blockTimestamp": "0x6a298004",
          "transactionHash": "0x06979de07a6163a4b3802f68071e71e604efc5ab9baad40322ce5ca706390f88",
          "transactionIndex": "0x93",
          "logIndex": "0x1da",
          "removed": false
        },
        {
          "address": "0x9165e5ec71d2815d6681f96364a10ed708ab85c4",
          "topics": [
            "0x143f277ab7631008a141d4adfe06e8b7c5a169fc406e826eb1c53e4ca6f6e0af",
            "0x22d8b533a964aa3746ea32722f70bbc2f3a073f9e4ace158cb16f1726c84d33d",
            "0x000000000000000000000000a088341c5fad8115b2bc6b503467e39b47d45936"
          ],
          "data": "0x0000000000000000000000006f1947c64569bc394ccb312efe12aa7aa7c49fda00000000000000000000000000000000000000000000000002503e088c64ce4300000000000000000000000000000000000000000000000002503e088c64ce430000000000000000000000000000000000000000000000000000000000000002",
          "blockHash": "0xab44912e05eb0285e634392f19edbd193d43c1a1b85c634a872ef30e4b936b98",
          "blockNumber": "0xa84fc3",
          "blockTimestamp": "0x6a298004",
          "transactionHash": "0x06979de07a6163a4b3802f68071e71e604efc5ab9baad40322ce5ca706390f88",
          "transactionIndex": "0x93",
          "logIndex": "0x1db",
          "removed": false
        },
        {
          "address": "0x9165e5ec71d2815d6681f96364a10ed708ab85c4",
          "topics": [
            "0x179d4530c0170f3435081eb9e0c14edc5c87c5e8708c2a5e94caba45fa687a9f",
            "0x22d8b533a964aa3746ea32722f70bbc2f3a073f9e4ace158cb16f1726c84d33d"
          ],
          "data": "0x0000000000000000000000006f1947c64569bc394ccb312efe12aa7aa7c49fda00000000000000000000000000000000000000000000000002503e088c64ce4300000000000000000000000000000000000000000000000002503e088c64ce43",
          "blockHash": "0xab44912e05eb0285e634392f19edbd193d43c1a1b85c634a872ef30e4b936b98",
          "blockNumber": "0xa84fc3",
          "blockTimestamp": "0x6a298004",
          "transactionHash": "0x06979de07a6163a4b3802f68071e71e604efc5ab9baad40322ce5ca706390f88",
          "transactionIndex": "0x93",
          "logIndex": "0x1dc",
          "removed": false
        },
        {
          "address": "0xd2b4047843ea81bff25cc022cc045888a93f3fa2",
          "topics": [
            "0xddf252ad1be2c89b69c2b068fc378daa952ba7f163c4a11628f55a4df523b3ef",
            "0x0000000000000000000000005587fd98f5b5d8d0ddc09e49cddd08771bf0be1a",
            "0x00000000000000000000000080fe0ec30c29b0c4c996b463b6869060b7c74a75"
          ],
          "data": "0x00000000000000000000000000000000000000000000021e19e0c9bab2400000",
          "blockHash": "0xab44912e05eb0285e634392f19edbd193d43c1a1b85c634a872ef30e4b936b98",
          "blockNumber": "0xa84fc3",
          "blockTimestamp": "0x6a298004",
          "transactionHash": "0x06979de07a6163a4b3802f68071e71e604efc5ab9baad40322ce5ca706390f88",
          "transactionIndex": "0x93",
          "logIndex": "0x1dd",
          "removed": false
        },
        {
          "address": "0x6f1947c64569bc394ccb312efe12aa7aa7c49fda",
          "topics": [
            "0xddf252ad1be2c89b69c2b068fc378daa952ba7f163c4a11628f55a4df523b3ef",
            "0x00000000000000000000000080fe0ec30c29b0c4c996b463b6869060b7c74a75",
            "0x0000000000000000000000005587fd98f5b5d8d0ddc09e49cddd08771bf0be1a"
          ],
          "data": "0x00000000000000000000000000000000000000000000002d2ceb58ed8477c3cd",
          "blockHash": "0xab44912e05eb0285e634392f19edbd193d43c1a1b85c634a872ef30e4b936b98",
          "blockNumber": "0xa84fc3",
          "blockTimestamp": "0x6a298004",
          "transactionHash": "0x06979de07a6163a4b3802f68071e71e604efc5ab9baad40322ce5ca706390f88",
          "transactionIndex": "0x93",
          "logIndex": "0x1de",
          "removed": false
        }
      ],
      "logsBloom": "0x0000000800000000000000000000000000000000000000040102100040000000010000000000000000001400000800008040000004000000010000020024000000000240290000000002000800080c010000090000040020010000000080000000000080020000000000000002000800080000000005000000010150000000000000400000000000000000000000200004000008008020000081000000000040020000000080000000000000001060000044000000800000000000000000000000002002100000000000000000080000000000000008010040004000000160000010000000000000004000000000000000040000000000040000020804000200",
      "transactionHash": "0x06979de07a6163a4b3802f68071e71e604efc5ab9baad40322ce5ca706390f88",
      "transactionIndex": "0x93",
      "blockHash": "0xab44912e05eb0285e634392f19edbd193d43c1a1b85c634a872ef30e4b936b98",
      "blockNumber": "0xa84fc3",
      "gasUsed": "0x46a9b",
      "effectiveGasPrice": "0x16c5964a7",
      "from": "0x5587fd98f5b5d8d0ddc09e49cddd08771bf0be1a",
      "to": "0xa088341c5fad8115b2bc6b503467e39b47d45936",
      "contractAddress": null
    },
    {
      "type": "0x2",
      "status": "0x1",
      "cumulativeGasUsed": "0xd6a0b9",
      "logs": [],
      "logsBloom": "0x00000000000000000000000000000000000000000000000000000000000000000000000000000000000000000000000000000000000000000000000000000000000000000000000000000000000000000000000000000000000000000000000000000000000000000000000000000000000000000000000000000000000000000000000000000000000000000000000000000000000000000000000000000000000000000000000000000000000000000000000000000000000000000000000000000000000000000000000000000000000000000000000000000000000000000000000000000000000000000000000000000000000000000000000000000000",
      "transactionHash": "0xdef2aea0054922fb5706fe6345229008b19a629f25439ab19f875fbf7b57def1",
      "transactionIndex": "0x94",
      "blockHash": "0xab44912e05eb0285e634392f19edbd193d43c1a1b85c634a872ef30e4b936b98",
      "blockNumber": "0xa84fc3",
      "gasUsed": "0x6fdd",
      "effectiveGasPrice": "0x16c5964a7",
      "from": "0x5587fd98f5b5d8d0ddc09e49cddd08771bf0be1a",
      "to": "0x958979f81f32630483189695add36c8fe123ed71",
      "contractAddress": null
    },
    {
      "type": "0x2",
      "status": "0x1",
      "cumulativeGasUsed": "0xd7255b",
      "logs": [
        {
          "address": "0xd2b4047843ea81bff25cc022cc045888a93f3fa2",
          "topics": [
            "0xddf252ad1be2c89b69c2b068fc378daa952ba7f163c4a11628f55a4df523b3ef",
            "0x0000000000000000000000000000000000000000000000000000000000000000",
            "0x0000000000000000000000005587fd98f5b5d8d0ddc09e49cddd08771bf0be1a"
          ],
          "data": "0x00000000000000000000000000000000000000000000021e19e0c9bab2400000",
          "blockHash": "0xab44912e05eb0285e634392f19edbd193d43c1a1b85c634a872ef30e4b936b98",
          "blockNumber": "0xa84fc3",
          "blockTimestamp": "0x6a298004",
          "transactionHash": "0xf2da1c4ab93b6c635a3ae2a6c4f61f79429a5b53502e05c7f158cf893bc1e5d8",
          "transactionIndex": "0x95",
          "logIndex": "0x1df",
          "removed": false
        }
      ],
      "logsBloom": "0x00000008000000000000000000000000000000000000000000000000000000000000000000000000000000000000000000000000000000000000000000000000000000002000000000020008000000010000000000000000000000000000000000000000020000000000000000000800000000000000000000000010000000000000000000000000000000000000000000000000000000000081000000000000000000000000000000000000000000000000000000000000000000000000000000000002000000000000000000000000000000000000000000000000000020000000000000000000000000000000000000000000000000000000000000000000",
      "transactionHash": "0xf2da1c4ab93b6c635a3ae2a6c4f61f79429a5b53502e05c7f158cf893bc1e5d8",
      "transactionIndex": "0x95",
      "blockHash": "0xab44912e05eb0285e634392f19edbd193d43c1a1b85c634a872ef30e4b936b98",
      "blockNumber": "0xa84fc3",
      "gasUsed": "0x84a2",
      "effectiveGasPrice": "0x16c5964a7",
      "from": "0x5587fd98f5b5d8d0ddc09e49cddd08771bf0be1a",
      "to": "0xd2b4047843ea81bff25cc022cc045888a93f3fa2",
      "contractAddress": null
    },
    {
      "type": "0x2",
      "status": "0x1",
      "cumulativeGasUsed": "0x140d65e",
      "logs": [
        {
          "address": "0xd2b4047843ea81bff25cc022cc045888a93f3fa2",
          "topics": [
            "0x8c5be1e5ebec7d5bd14f71427d1e84f3dd0314c0f7b2291e5b200ac8c7c3b925",
            "0x0000000000000000000000005587fd98f5b5d8d0ddc09e49cddd08771bf0be1a",
            "0x000000000000000000000000a088341c5fad8115b2bc6b503467e39b47d45936"
          ],
          "data": "0x00000000000000000000000000000000000000000000021e19e0c9bab2400000",
          "blockHash": "0xf898ca9dec8b0720367a832e599a6eda708963664534de2d363ff1f881585224",
          "blockNumber": "0xa84fc4",
          "blockTimestamp": "0x6a298010",
          "transactionHash": "0x3eb59e82c60f90585ab9cdf012334f562b9803f44dfae23fa436e2b00420581c",
          "transactionIndex": "0xd2",
          "logIndex": "0x288",
          "removed": false
        }
      ],
      "logsBloom": "0x00000008000000000000000000000000000000000000000000000000000000000000000000000000000000000000000000000000000000000000000000200000000000002000000000020000000000010000000000000000000000000000000000000000000000000000000000000000080000000000000000000040000000000000000000000000000000000000000000000000000000000081000000000000020000000000000000000000000000000000000000000000000000000000000000000000000000000000000000000000000000000000000000000000000000000010000000000000000000000000000000040000000000000000000000000000",
      "transactionHash": "0x3eb59e82c60f90585ab9cdf012334f562b9803f44dfae23fa436e2b00420581c",
      "transactionIndex": "0xd2",
      "blockHash": "0xf898ca9dec8b0720367a832e599a6eda708963664534de2d363ff1f881585224",
      "blockNumber": "0xa84fc4",
      "gasUsed": "0xb389",
      "effectiveGasPrice": "0x15d844bb5",
      "from": "0x5587fd98f5b5d8d0ddc09e49cddd08771bf0be1a",
      "to": "0xd2b4047843ea81bff25cc022cc045888a93f3fa2",
      "contractAddress": null
    },
    {
      "type": "0x2",
      "status": "0x1",
      "cumulativeGasUsed": "0x16a633b",
      "logs": [],
      "logsBloom": "0x00000000000000000000000000000000000000000000000000000000000000000000000000000000000000000000000000000000000000000000000000000000000000000000000000000000000000000000000000000000000000000000000000000000000000000000000000000000000000000000000000000000000000000000000000000000000000000000000000000000000000000000000000000000000000000000000000000000000000000000000000000000000000000000000000000000000000000000000000000000000000000000000000000000000000000000000000000000000000000000000000000000000000000000000000000000",
      "transactionHash": "0xe46bc963827a591224163025ce0d2577ed2cd3b0bebb76622e4a3eff19625dc8",
      "transactionIndex": "0xdf",
      "blockHash": "0xf898ca9dec8b0720367a832e599a6eda708963664534de2d363ff1f881585224",
      "blockNumber": "0xa84fc4",
      "gasUsed": "0x7ad9",
      "effectiveGasPrice": "0x15d844bb5",
      "from": "0x5587fd98f5b5d8d0ddc09e49cddd08771bf0be1a",
      "to": "0x958979f81f32630483189695add36c8fe123ed71",
      "contractAddress": null
    },
    {
      "type": "0x2",
      "status": "0x1",
      "cumulativeGasUsed": "0x16ef269",
      "logs": [
        {
          "address": "0xd2b4047843ea81bff25cc022cc045888a93f3fa2",
          "topics": [
            "0xddf252ad1be2c89b69c2b068fc378daa952ba7f163c4a11628f55a4df523b3ef",
            "0x0000000000000000000000000000000000000000000000000000000000000000",
            "0x0000000000000000000000005587fd98f5b5d8d0ddc09e49cddd08771bf0be1a"
          ],
          "data": "0x00000000000000000000000000000000000000000000021e19e0c9bab2400000",
          "blockHash": "0xf898ca9dec8b0720367a832e599a6eda708963664534de2d363ff1f881585224",
          "blockNumber": "0xa84fc4",
          "blockTimestamp": "0x6a298010",
          "transactionHash": "0x84f5ad17e23b549128dd2f67db2822bae43146df5f5e57d1ded8900ed4bded46",
          "transactionIndex": "0xe3",
          "logIndex": "0x2aa",
          "removed": false
        }
      ],
      "logsBloom": "0x00000008000000000000000000000000000000000000000000000000000000000000000000000000000000000000000000000000000000000000000000000000000000002000000000020008000000010000000000000000000000000000000000000000020000000000000000000800000000000000000000000010000000000000000000000000000000000000000000000000000000000081000000000000000000000000000000000000000000000000000000000000000000000000000000000002000000000000000000000000000000000000000000000000000020000000000000000000000000000000000000000000000000000000000000000000",
      "transactionHash": "0x84f5ad17e23b549128dd2f67db2822bae43146df5f5e57d1ded8900ed4bded46",
      "transactionIndex": "0xe3",
      "blockHash": "0xf898ca9dec8b0720367a832e599a6eda708963664534de2d363ff1f881585224",
      "blockNumber": "0xa84fc4",
      "gasUsed": "0x84a2",
      "effectiveGasPrice": "0x15d844bb5",
      "from": "0x5587fd98f5b5d8d0ddc09e49cddd08771bf0be1a",
      "to": "0xd2b4047843ea81bff25cc022cc045888a93f3fa2",
      "contractAddress": null
    },
    {
      "type": "0x2",
      "status": "0x1",
      "cumulativeGasUsed": "0x1720b1e",
      "logs": [
        {
          "address": "0xd2b4047843ea81bff25cc022cc045888a93f3fa2",
          "topics": [
            "0x8c5be1e5ebec7d5bd14f71427d1e84f3dd0314c0f7b2291e5b200ac8c7c3b925",
            "0x0000000000000000000000005587fd98f5b5d8d0ddc09e49cddd08771bf0be1a",
            "0x000000000000000000000000a088341c5fad8115b2bc6b503467e39b47d45936"
          ],
          "data": "0x00000000000000000000000000000000000000000000021e19e0c9bab2400000",
          "blockHash": "0xf898ca9dec8b0720367a832e599a6eda708963664534de2d363ff1f881585224",
          "blockNumber": "0xa84fc4",
          "blockTimestamp": "0x6a298010",
          "transactionHash": "0xf746c7bd23af4bb3b8518e2e6e9c10bd3fc7c5efd2fc07a3e412cfab9340ddcd",
          "transactionIndex": "0xe6",
          "logIndex": "0x2b3",
          "removed": false
        }
      ],
      "logsBloom": "0x00000008000000000000000000000000000000000000000000000000000000000000000000000000000000000000000000000000000000000000000000200000000000002000000000020000000000010000000000000000000000000000000000000000000000000000000000000000080000000000000000000040000000000000000000000000000000000000000000000000000000000081000000000000020000000000000000000000000000000000000000000000000000000000000000000000000000000000000000000000000000000000000000000000000000000010000000000000000000000000000000040000000000000000000000000000",
      "transactionHash": "0xf746c7bd23af4bb3b8518e2e6e9c10bd3fc7c5efd2fc07a3e412cfab9340ddcd",
      "transactionIndex": "0xe6",
      "blockHash": "0xf898ca9dec8b0720367a832e599a6eda708963664534de2d363ff1f881585224",
      "blockNumber": "0xa84fc4",
      "gasUsed": "0x65cd",
      "effectiveGasPrice": "0x15d844bb5",
      "from": "0x5587fd98f5b5d8d0ddc09e49cddd08771bf0be1a",
      "to": "0xd2b4047843ea81bff25cc022cc045888a93f3fa2",
      "contractAddress": null
    }
  ],
  "libraries": [],
  "pending": [],
  "returns": {},
  "timestamp": 1781104657773,
  "chain": 11155111,
  "commit": "83a2bab"
}