{
  "transactions": [
    {
      "hash": "0xaebd71fb0ec85c4b99b7decdcaeba432d1721b35cdf3b5d5ffc4810a63bf1686",
      "transactionType": "CALL",
      "contractName": null,
      "contractAddress": "0xb651ea78a4388b8813e85f4479ddc4be78977f3b",
      "function": "setMaxSpotOracleDeviationBps(uint16)",
      "arguments": [
        "65535"
      ],
      "transaction": {
        "from": "0x5587fd98f5b5d8d0ddc09e49cddd08771bf0be1a",
        "to": "0xb651ea78a4388b8813e85f4479ddc4be78977f3b",
        "gas": "0x8b86",
        "value": "0x0",
        "input": "0x55fd2fed000000000000000000000000000000000000000000000000000000000000ffff",
        "nonce": "0x38",
        "chainId": "0xaa36a7"
      },
      "additionalContracts": [],
      "isFixedGasLimit": false
    },
    {
      "hash": "0xc18fe5ea49c272950cc62e366f7280062857eb70c6ddeab960d4f177e57c44db",
      "transactionType": "CALL",
      "contractName": null,
      "contractAddress": "0x9165e5ec71d2815d6681f96364a10ed708ab85c4",
      "function": "setPoolConfig((address,address,uint24,int24,address),(uint24,uint24,uint16,uint16,uint16,uint16,uint32,uint32,uint64))",
      "arguments": [
        "(0x6f1947c64569BC394Ccb312eFE12AA7AA7c49FDa, 0xD2B4047843Ea81Bff25CC022cC045888A93F3fa2, 8388608, 60, 0x9165e5eC71D2815D6681F96364a10eD708AB85c4)",
        "(500, 5000, 1, 65535, 65535, 5000, 60, 0, 0)"
      ],
      "transaction": {
        "from": "0x5587fd98f5b5d8d0ddc09e49cddd08771bf0be1a",
        "to": "0x9165e5ec71d2815d6681f96364a10ed708ab85c4",
        "gas": "0xdc87",
        "value": "0x0",
        "input": "0x89396da50000000000000000000000006f1947c64569bc394ccb312efe12aa7aa7c49fda000000000000000000000000d2b4047843ea81bff25cc022cc045888a93f3fa20000000000000000000000000000000000000000000000000000000000800000000000000000000000000000000000000000000000000000000000000000003c0000000000000000000000009165e5ec71d2815d6681f96364a10ed708ab85c400000000000000000000000000000000000000000000000000000000000001f400000000000000000000000000000000000000000000000000000000000013880000000000000000000000000000000000000000000000000000000000000001000000000000000000000000000000000000000000000000000000000000ffff000000000000000000000000000000000000000000000000000000000000ffff0000000000000000000000000000000000000000000000000000000000001388000000000000000000000000000000000000000000000000000000000000003c00000000000000000000000000000000000000000000000000000000000000000000000000000000000000000000000000000000000000000000000000000000",
        "nonce": "0x39",
        "chainId": "0xaa36a7"
      },
      "additionalContracts": [],
      "isFixedGasLimit": false
    },
    {
      "hash": "0x65541e9127395adb11378e781928411caac4e2c89d1a06c3f5ac7a98f23754c4",
      "transactionType": "CALL",
      "contractName": null,
      "contractAddress": "0x958979f81f32630483189695add36c8fe123ed71",
      "function": "setAnswer(int256)",
      "arguments": [
        "1630776229"
      ],
      "transaction": {
        "from": "0x5587fd98f5b5d8d0ddc09e49cddd08771bf0be1a",
        "to": "0x958979f81f32630483189695add36c8fe123ed71",
        "gas": "0xb3aa",
        "value": "0x0",
        "input": "0x99213cd8000000000000000000000000000000000000000000000000000000006133aba5",
        "nonce": "0x3a",
        "chainId": "0xaa36a7"
      },
      "additionalContracts": [],
      "isFixedGasLimit": false
    },
    {
      "hash": "0xa38f3b4a2f7e78f8ce4fd28fb8aa80614f4b834b8581bec7b48f50142e3779fb",
      "transactionType": "CALL",
      "contractName": null,
      "contractAddress": "0xd2b4047843ea81bff25cc022cc045888a93f3fa2",
      "function": "mint(address,uint256)",
      "arguments": [
        "0x5587Fd98F5b5D8d0dDC09e49cdDD08771Bf0bE1a",
        "10000000000000000000000"
      ],
      "transaction": {
        "from": "0x5587fd98f5b5d8d0ddc09e49cddd08771bf0be1a",
        "to": "0xd2b4047843ea81bff25cc022cc045888a93f3fa2",
        "gas": "0xc1f9",
        "value": "0x0",
        "input": "0x40c10f190000000000000000000000005587fd98f5b5d8d0ddc09e49cddd08771bf0be1a00000000000000000000000000000000000000000000021e19e0c9bab2400000",
        "nonce": "0x3b",
        "chainId": "0xaa36a7"
      },
      "additionalContracts": [],
      "isFixedGasLimit": false
    },
    {
      "hash": "0xe0d3baebe890ec2d463fb8e317d39a0b906b9096904a4ffedff2d35616e75e7f",
      "transactionType": "CALL",
      "contractName": null,
      "contractAddress": "0xd2b4047843ea81bff25cc022cc045888a93f3fa2",
      "function": "approve(address,uint256)",
      "arguments": [
        "0xa088341c5FaD8115b2bc6B503467e39b47D45936",
        "10000000000000000000000"
      ],
      "transaction": {
        "from": "0x5587fd98f5b5d8d0ddc09e49cddd08771bf0be1a",
        "to": "0xd2b4047843ea81bff25cc022cc045888a93f3fa2",
        "gas": "0x8c9b",
        "value": "0x0",
        "input": "0x095ea7b3000000000000000000000000a088341c5fad8115b2bc6b503467e39b47d4593600000000000000000000000000000000000000000000021e19e0c9bab2400000",
        "nonce": "0x3c",
        "chainId": "0xaa36a7"
      },
      "additionalContracts": [],
      "isFixedGasLimit": false
    },
    {
      "hash": "0xff705c28dd14f5d970eb5b3bbbefdf902d7f2e9e0ad5f43b5c98f9074a40bc15",
      "transactionType": "CALL",
      "contractName": null,
      "contractAddress": "0xa088341c5fad8115b2bc6b503467e39b47d45936",
      "function": "swap((address,address,uint24,int24,address),(bool,int256,uint160))",
      "arguments": [
        "(0x6f1947c64569BC394Ccb312eFE12AA7AA7c49FDa, 0xD2B4047843Ea81Bff25CC022cC045888A93F3fa2, 8388608, 60, 0x9165e5eC71D2815D6681F96364a10eD708AB85c4)",
        "(false, -10000000000000000000000, 1461446703485210103287273052203988822378723970341)"
      ],
      "transaction": {
        "from": "0x5587fd98f5b5d8d0ddc09e49cddd08771bf0be1a",
        "to": "0xa088341c5fad8115b2bc6b503467e39b47d45936",
        "gas": "0x7b057",
        "value": "0x0",
        "input": "0x1e2817de0000000000000000000000006f1947c64569bc394ccb312efe12aa7aa7c49fda000000000000000000000000d2b4047843ea81bff25cc022cc045888a93f3fa20000000000000000000000000000000000000000000000000000000000800000000000000000000000000000000000000000000000000000000000000000003c0000000000000000000000009165e5ec71d2815d6681f96364a10ed708ab85c40000000000000000000000000000000000000000000000000000000000000000fffffffffffffffffffffffffffffffffffffffffffffde1e61f36454dc00000000000000000000000000000fffd8963efd1fc6a506488495d951d5263988d25",
        "nonce": "0x3d",
        "chainId": "0xaa36a7"
      },
      "additionalContracts": [],
      "isFixedGasLimit": false
    },
    {
      "hash": "0x33b1b268229b21e4bc842d5d4a819496c4eac9b234c632f86ef07a39adfafc27",
      "transactionType": "CALL",
      "contractName": null,
      "contractAddress": "0x958979f81f32630483189695add36c8fe123ed71",
      "function": "setAnswer(int256)",
      "arguments": [
        "1662752233"
      ],
      "transaction": {
        "from": "0x5587fd98f5b5d8d0ddc09e49cddd08771bf0be1a",
        "to": "0x958979f81f32630483189695add36c8fe123ed71",
        "gas": "0xa3ab",
        "value": "0x0",
        "input": "0x99213cd800000000000000000000000000000000000000000000000000000000631b95e9",
        "nonce": "0x3e",
        "chainId": "0xaa36a7"
      },
      "additionalContracts": [],
      "isFixedGasLimit": false
    },
    {
      "hash": "0x744248e56592d3c433e7b195a654f7f12aba93f77951c3f52efd1ddcacdb2b57",
      "transactionType": "CALL",
      "contractName": null,
      "contractAddress": "0xd2b4047843ea81bff25cc022cc045888a93f3fa2",
      "function": "mint(address,uint256)",
      "arguments": [
        "0x5587Fd98F5b5D8d0dDC09e49cdDD08771Bf0bE1a",
        "10000000000000000000000"
      ],
      "transaction": {
        "from": "0x5587fd98f5b5d8d0ddc09e49cddd08771bf0be1a",
        "to": "0xd2b4047843ea81bff25cc022cc045888a93f3fa2",
        "gas": "0xc1f9",
        "value": "0x0",
        "input": "0x40c10f190000000000000000000000005587fd98f5b5d8d0ddc09e49cddd08771bf0be1a00000000000000000000000000000000000000000000021e19e0c9bab2400000",
        "nonce": "0x3f",
        "chainId": "0xaa36a7"
      },
      "additionalContracts": [],
      "isFixedGasLimit": false
    },
    {
      "hash": "0x22e7394450bce706e612007fad45d9a047e8347911a9f44ec03bf38d5ad4efaf",
      "transactionType": "CALL",
      "contractName": null,
      "contractAddress": "0xd2b4047843ea81bff25cc022cc045888a93f3fa2",
      "function": "approve(address,uint256)",
      "arguments": [
        "0xa088341c5FaD8115b2bc6B503467e39b47D45936",
        "10000000000000000000000"
      ],
      "transaction": {
        "from": "0x5587fd98f5b5d8d0ddc09e49cddd08771bf0be1a",
        "to": "0xd2b4047843ea81bff25cc022cc045888a93f3fa2",
        "gas": "0x10691",
        "value": "0x0",
        "input": "0x095ea7b3000000000000000000000000a088341c5fad8115b2bc6b503467e39b47d4593600000000000000000000000000000000000000000000021e19e0c9bab2400000",
        "nonce": "0x40",
        "chainId": "0xaa36a7"
      },
      "additionalContracts": [],
      "isFixedGasLimit": false
    },
    {
      "hash": "0x69f161d4ef49d12f55a994f4a576a3220ddd4b6325ed65329aea22238dab72f1",
      "transactionType": "CALL",
      "contractName": null,
      "contractAddress": "0xa088341c5fad8115b2bc6b503467e39b47d45936",
      "function": "swap((address,address,uint24,int24,address),(bool,int256,uint160))",
      "arguments": [
        "(0x6f1947c64569BC394Ccb312eFE12AA7AA7c49FDa, 0xD2B4047843Ea81Bff25CC022cC045888A93F3fa2, 8388608, 60, 0x9165e5eC71D2815D6681F96364a10eD708AB85c4)",
        "(false, -10000000000000000000000, 1461446703485210103287273052203988822378723970341)"
      ],
      "transaction": {
        "from": "0x5587fd98f5b5d8d0ddc09e49cddd08771bf0be1a",
        "to": "0xa088341c5fad8115b2bc6b503467e39b47d45936",
        "gas": "0x61b4b",
        "value": "0x0",
        "input": "0x1e2817de0000000000000000000000006f1947c64569bc394ccb312efe12aa7aa7c49fda000000000000000000000000d2b4047843ea81bff25cc022cc045888a93f3fa20000000000000000000000000000000000000000000000000000000000800000000000000000000000000000000000000000000000000000000000000000003c0000000000000000000000009165e5ec71d2815d6681f96364a10ed708ab85c40000000000000000000000000000000000000000000000000000000000000000fffffffffffffffffffffffffffffffffffffffffffffde1e61f36454dc00000000000000000000000000000fffd8963efd1fc6a506488495d951d5263988d25",
        "nonce": "0x41",
        "chainId": "0xaa36a7"
      },
      "additionalContracts": [],
      "isFixedGasLimit": false
    },
    {
      "hash": null,
      "transactionType": "CALL",
      "contractName": null,
      "contractAddress": "0x958979f81f32630483189695add36c8fe123ed71",
      "function": "setAnswer(int256)",
      "arguments": [
        "1694728238"
      ],
      "transaction": {
        "from": "0x5587fd98f5b5d8d0ddc09e49cddd08771bf0be1a",
        "to": "0x958979f81f32630483189695add36c8fe123ed71",
        "gas": "0xa3ab",
        "value": "0x0",
        "input": "0x99213cd8000000000000000000000000000000000000000000000000000000006503802e",
        "nonce": "0x42",
        "chainId": "0xaa36a7"
      },
      "additionalContracts": [],
      "isFixedGasLimit": false
    },
    {
      "hash": null,
      "transactionType": "CALL",
      "contractName": null,
      "contractAddress": "0xd2b4047843ea81bff25cc022cc045888a93f3fa2",
      "function": "mint(address,uint256)",
      "arguments": [
        "0x5587Fd98F5b5D8d0dDC09e49cdDD08771Bf0bE1a",
        "10000000000000000000000"
      ],
      "transaction": {
        "from": "0x5587fd98f5b5d8d0ddc09e49cddd08771bf0be1a",
        "to": "0xd2b4047843ea81bff25cc022cc045888a93f3fa2",
        "gas": "0xc1f9",
        "value": "0x0",
        "input": "0x40c10f190000000000000000000000005587fd98f5b5d8d0ddc09e49cddd08771bf0be1a00000000000000000000000000000000000000000000021e19e0c9bab2400000",
        "nonce": "0x43",
        "chainId": "0xaa36a7"
      },
      "additionalContracts": [],
      "isFixedGasLimit": false
    },
    {
      "hash": null,
      "transactionType": "CALL",
      "contractName": null,
      "contractAddress": "0xd2b4047843ea81bff25cc022cc045888a93f3fa2",
      "function": "approve(address,uint256)",
      "arguments": [
        "0xa088341c5FaD8115b2bc6B503467e39b47D45936",
        "10000000000000000000000"
      ],
      "transaction": {
        "from": "0x5587fd98f5b5d8d0ddc09e49cddd08771bf0be1a",
        "to": "0xd2b4047843ea81bff25cc022cc045888a93f3fa2",
        "gas": "0x10691",
        "value": "0x0",
        "input": "0x095ea7b3000000000000000000000000a088341c5fad8115b2bc6b503467e39b47d4593600000000000000000000000000000000000000000000021e19e0c9bab2400000",
        "nonce": "0x44",
        "chainId": "0xaa36a7"
      },
      "additionalContracts": [],
      "isFixedGasLimit": false
    },
    {
      "hash": null,
      "transactionType": "CALL",
      "contractName": null,
      "contractAddress": "0xa088341c5fad8115b2bc6b503467e39b47d45936",
      "function": "swap((address,address,uint24,int24,address),(bool,int256,uint160))",
      "arguments": [
        "(0x6f1947c64569BC394Ccb312eFE12AA7AA7c49FDa, 0xD2B4047843Ea81Bff25CC022cC045888A93F3fa2, 8388608, 60, 0x9165e5eC71D2815D6681F96364a10eD708AB85c4)",
        "(false, -10000000000000000000000, 1461446703485210103287273052203988822378723970341)"
      ],
      "transaction": {
        "from": "0x5587fd98f5b5d8d0ddc09e49cddd08771bf0be1a",
        "to": "0xa088341c5fad8115b2bc6b503467e39b47d45936",
        "gas": "0x672f3",
        "value": "0x0",
        "input": "0x1e2817de0000000000000000000000006f1947c64569bc394ccb312efe12aa7aa7c49fda000000000000000000000000d2b4047843ea81bff25cc022cc045888a93f3fa20000000000000000000000000000000000000000000000000000000000800000000000000000000000000000000000000000000000000000000000000000003c0000000000000000000000009165e5ec71d2815d6681f96364a10ed708ab85c40000000000000000000000000000000000000000000000000000000000000000fffffffffffffffffffffffffffffffffffffffffffffde1e61f36454dc00000000000000000000000000000fffd8963efd1fc6a506488495d951d5263988d25",
        "nonce": "0x45",
        "chainId": "0xaa36a7"
      },
      "additionalContracts": [],
      "isFixedGasLimit": false
    },
    {
      "hash": null,
      "transactionType": "CALL",
      "contractName": null,
      "contractAddress": "0x958979f81f32630483189695add36c8fe123ed71",
      "function": "setAnswer(int256)",
      "arguments": [
        "1726704242"
      ],
      "transaction": {
        "from": "0x5587fd98f5b5d8d0ddc09e49cddd08771bf0be1a",
        "to": "0x958979f81f32630483189695add36c8fe123ed71",
        "gas": "0xa3ab",
        "value": "0x0",
        "input": "0x99213cd80000000000000000000000000000000000000000000000000000000066eb6a72",
        "nonce": "0x46",
        "chainId": "0xaa36a7"
      },
      "additionalContracts": [],
      "isFixedGasLimit": false
    },
    {
      "hash": null,
      "transactionType": "CALL",
      "contractName": null,
      "contractAddress": "0xd2b4047843ea81bff25cc022cc045888a93f3fa2",
      "function": "mint(address,uint256)",
      "arguments": [
        "0x5587Fd98F5b5D8d0dDC09e49cdDD08771Bf0bE1a",
        "10000000000000000000000"
      ],
      "transaction": {
        "from": "0x5587fd98f5b5d8d0ddc09e49cddd08771bf0be1a",
        "to": "0xd2b4047843ea81bff25cc022cc045888a93f3fa2",
        "gas": "0xc1f9",
        "value": "0x0",
        "input": "0x40c10f190000000000000000000000005587fd98f5b5d8d0ddc09e49cddd08771bf0be1a00000000000000000000000000000000000000000000021e19e0c9bab2400000",
        "nonce": "0x47",
        "chainId": "0xaa36a7"
      },
      "additionalContracts": [],
      "isFixedGasLimit": false
    },
    {
      "hash": null,
      "transactionType": "CALL",
      "contractName": null,
      "contractAddress": "0xd2b4047843ea81bff25cc022cc045888a93f3fa2",
      "function": "approve(address,uint256)",
      "arguments": [
        "0xa088341c5FaD8115b2bc6B503467e39b47D45936",
        "10000000000000000000000"
      ],
      "transaction": {
        "from": "0x5587fd98f5b5d8d0ddc09e49cddd08771bf0be1a",
        "to": "0xd2b4047843ea81bff25cc022cc045888a93f3fa2",
        "gas": "0x10691",
        "value": "0x0",
        "input": "0x095ea7b3000000000000000000000000a088341c5fad8115b2bc6b503467e39b47d4593600000000000000000000000000000000000000000000021e19e0c9bab2400000",
        "nonce": "0x48",
        "chainId": "0xaa36a7"
      },
      "additionalContracts": [],
      "isFixedGasLimit": false
    },
    {
      "hash": null,
      "transactionType": "CALL",
      "contractName": null,
      "contractAddress": "0xa088341c5fad8115b2bc6b503467e39b47d45936",
      "function": "swap((address,address,uint24,int24,address),(bool,int256,uint160))",
      "arguments": [
        "(0x6f1947c64569BC394Ccb312eFE12AA7AA7c49FDa, 0xD2B4047843Ea81Bff25CC022cC045888A93F3fa2, 8388608, 60, 0x9165e5eC71D2815D6681F96364a10eD708AB85c4)",
        "(false, -10000000000000000000000, 1461446703485210103287273052203988822378723970341)"
      ],
      "transaction": {
        "from": "0x5587fd98f5b5d8d0ddc09e49cddd08771bf0be1a",
        "to": "0xa088341c5fad8115b2bc6b503467e39b47d45936",
        "gas": "0x61b24",
        "value": "0x0",
        "input": "0x1e2817de0000000000000000000000006f1947c64569bc394ccb312efe12aa7aa7c49fda000000000000000000000000d2b4047843ea81bff25cc022cc045888a93f3fa20000000000000000000000000000000000000000000000000000000000800000000000000000000000000000000000000000000000000000000000000000003c0000000000000000000000009165e5ec71d2815d6681f96364a10ed708ab85c40000000000000000000000000000000000000000000000000000000000000000fffffffffffffffffffffffffffffffffffffffffffffde1e61f36454dc00000000000000000000000000000fffd8963efd1fc6a506488495d951d5263988d25",
        "nonce": "0x49",
        "chainId": "0xaa36a7"
      },
      "additionalContracts": [],
      "isFixedGasLimit": false
    },
    {
      "hash": null,
      "transactionType": "CALL",
      "contractName": null,
      "contractAddress": "0x958979f81f32630483189695add36c8fe123ed71",
      "function": "setAnswer(int256)",
      "arguments": [
        "1758680247"
      ],
      "transaction": {
        "from": "0x5587fd98f5b5d8d0ddc09e49cddd08771bf0be1a",
        "to": "0x958979f81f32630483189695add36c8fe123ed71",
        "gas": "0xa3ab",
        "value": "0x0",
        "input": "0x99213cd80000000000000000000000000000000000000000000000000000000068d354b7",
        "nonce": "0x4a",
        "chainId": "0xaa36a7"
      },
      "additionalContracts": [],
      "isFixedGasLimit": false
    },
    {
      "hash": null,
      "transactionType": "CALL",
      "contractName": null,
      "contractAddress": "0xd2b4047843ea81bff25cc022cc045888a93f3fa2",
      "function": "mint(address,uint256)",
      "arguments": [
        "0x5587Fd98F5b5D8d0dDC09e49cdDD08771Bf0bE1a",
        "10000000000000000000000"
      ],
      "transaction": {
        "from": "0x5587fd98f5b5d8d0ddc09e49cddd08771bf0be1a",
        "to": "0xd2b4047843ea81bff25cc022cc045888a93f3fa2",
        "gas": "0xc1f9",
        "value": "0x0",
        "input": "0x40c10f190000000000000000000000005587fd98f5b5d8d0ddc09e49cddd08771bf0be1a00000000000000000000000000000000000000000000021e19e0c9bab2400000",
        "nonce": "0x4b",
        "chainId": "0xaa36a7"
      },
      "additionalContracts": [],
      "isFixedGasLimit": false
    },
    {
      "hash": null,
      "transactionType": "CALL",
      "contractName": null,
      "contractAddress": "0xd2b4047843ea81bff25cc022cc045888a93f3fa2",
      "function": "approve(address,uint256)",
      "arguments": [
        "0xa088341c5FaD8115b2bc6B503467e39b47D45936",
        "10000000000000000000000"
      ],
      "transaction": {
        "from": "0x5587fd98f5b5d8d0ddc09e49cddd08771bf0be1a",
        "to": "0xd2b4047843ea81bff25cc022cc045888a93f3fa2",
        "gas": "0x10691",
        "value": "0x0",
        "input": "0x095ea7b3000000000000000000000000a088341c5fad8115b2bc6b503467e39b47d4593600000000000000000000000000000000000000000000021e19e0c9bab2400000",
        "nonce": "0x4c",
        "chainId": "0xaa36a7"
      },
      "additionalContracts": [],
      "isFixedGasLimit": false
    },
    {
      "hash": null,
      "transactionType": "CALL",
      "contractName": null,
      "contractAddress": "0xa088341c5fad8115b2bc6b503467e39b47d45936",
      "function": "swap((address,address,uint24,int24,address),(bool,int256,uint160))",
      "arguments": [
        "(0x6f1947c64569BC394Ccb312eFE12AA7AA7c49FDa, 0xD2B4047843Ea81Bff25CC022cC045888A93F3fa2, 8388608, 60, 0x9165e5eC71D2815D6681F96364a10eD708AB85c4)",
        "(false, -10000000000000000000000, 1461446703485210103287273052203988822378723970341)"
      ],
      "transaction": {
        "from": "0x5587fd98f5b5d8d0ddc09e49cddd08771bf0be1a",
        "to": "0xa088341c5fad8115b2bc6b503467e39b47d45936",
        "gas": "0x61b29",
        "value": "0x0",
        "input": "0x1e2817de0000000000000000000000006f1947c64569bc394ccb312efe12aa7aa7c49fda000000000000000000000000d2b4047843ea81bff25cc022cc045888a93f3fa20000000000000000000000000000000000000000000000000000000000800000000000000000000000000000000000000000000000000000000000000000003c0000000000000000000000009165e5ec71d2815d6681f96364a10ed708ab85c40000000000000000000000000000000000000000000000000000000000000000fffffffffffffffffffffffffffffffffffffffffffffde1e61f36454dc00000000000000000000000000000fffd8963efd1fc6a506488495d951d5263988d25",
        "nonce": "0x4d",
        "chainId": "0xaa36a7"
      },
      "additionalContracts": [],
      "isFixedGasLimit": false
    }
  ],
  "receipts": [
    {
      "type": "0x2",
      "status": "0x1",
      "cumulativeGasUsed": "0x1a6d709",
      "logs": [],
      "logsBloom": "0x00000000000000000000000000000000000000000000000000000000000000000000000000000000000000000000000000000000000000000000000000000000000000000000000000000000000000000000000000000000000000000000000000000000000000000000000000000000000000000000000000000000000000000000000000000000000000000000000000000000000000000000000000000000000000000000000000000000000000000000000000000000000000000000000000000000000000000000000000000000000000000000000000000000000000000000000000000000000000000000000000000000000000000000000000000000",
      "transactionHash": "0xaebd71fb0ec85c4b99b7decdcaeba432d1721b35cdf3b5d5ffc4810a63bf1686",
      "transactionIndex": "0x101",
      "blockHash": "0xadf9ed63c8dcc0d78a102d81948635705f8e6b2b0ddd77d04efaf6326ef14a2c",
      "blockNumber": "0xa84fcd",
      "gasUsed": "0x6504",
      "effectiveGasPrice": "0x13f972f56",
      "from": "0x5587fd98f5b5d8d0ddc09e49cddd08771bf0be1a",
      "to": "0xb651ea78a4388b8813e85f4479ddc4be78977f3b",
      "contractAddress": null
    },
    {
      "type": "0x2",
      "status": "0x1",
      "cumulativeGasUsed": "0x17a099b",
      "logs": [],
      "logsBloom": "0x00000000000000000000000000000000000000000000000000000000000000000000000000000000000000000000000000000000000000000000000000000000000000000000000000000000000000000000000000000000000000000000000000000000000000000000000000000000000000000000000000000000000000000000000000000000000000000000000000000000000000000000000000000000000000000000000000000000000000000000000000000000000000000000000000000000000000000000000000000000000000000000000000000000000000000000000000000000000000000000000000000000000000000000000000000000",
      "transactionHash": "0xc18fe5ea49c272950cc62e366f7280062857eb70c6ddeab960d4f177e57c44db",
      "transactionIndex": "0xea",
      "blockHash": "0x51e9966b05c6ee1223fa203fae5760375e10a716ea3693553caa65ee79f50ad5",
      "blockNumber": "0xa84fce",
      "gasUsed": "0x96ca",
      "effectiveGasPrice": "0x14afee5b8",
      "from": "0x5587fd98f5b5d8d0ddc09e49cddd08771bf0be1a",
      "to": "0x9165e5ec71d2815d6681f96364a10ed708ab85c4",
      "contractAddress": null
    },
    {
      "type": "0x2",
      "status": "0x1",
      "cumulativeGasUsed": "0x10c4668",
      "logs": [],
      "logsBloom": "0x00000000000000000000000000000000000000000000000000000000000000000000000000000000000000000000000000000000000000000000000000000000000000000000000000000000000000000000000000000000000000000000000000000000000000000000000000000000000000000000000000000000000000000000000000000000000000000000000000000000000000000000000000000000000000000000000000000000000000000000000000000000000000000000000000000000000000000000000000000000000000000000000000000000000000000000000000000000000000000000000000000000000000000000000000000000",
      "transactionHash": "0x65541e9127395adb11378e781928411caac4e2c89d1a06c3f5ac7a98f23754c4",
      "transactionIndex": "0xa3",
      "blockHash": "0x57fbc48dd0f8624f045c387947d9b607b680068f830da8d0c8ee5d3562ae72c8",
      "blockNumber": "0xa84fcf",
      "gasUsed": "0x7ad9",
      "effectiveGasPrice": "0x1499ed119",
      "from": "0x5587fd98f5b5d8d0ddc09e49cddd08771bf0be1a",
      "to": "0x958979f81f32630483189695add36c8fe123ed71",
      "contractAddress": null
    },
    {
      "type": "0x2",
      "status": "0x1",
      "cumulativeGasUsed": "0x19d9eda",
      "logs": [
        {
          "address": "0xd2b4047843ea81bff25cc022cc045888a93f3fa2",
          "topics": [
            "0xddf252ad1be2c89b69c2b068fc378daa952ba7f163c4a11628f55a4df523b3ef",
            "0x0000000000000000000000000000000000000000000000000000000000000000",
            "0x0000000000000000000000005587fd98f5b5d8d0ddc09e49cddd08771bf0be1a"
          ],
          "data": "0x00000000000000000000000000000000000000000000021e19e0c9bab2400000",
          "blockHash": "0x41243a1ab4acdf09933148163e1f87b84db0470a04dd7c55f75afc5f98be26d7",
          "blockNumber": "0xa84fd0",
          "blockTimestamp": "0x6a2980a0",
          "transactionHash": "0xa38f3b4a2f7e78f8ce4fd28fb8aa80614f4b834b8581bec7b48f50142e3779fb",
          "transactionIndex": "0xce",
          "logIndex": "0x24b",
          "removed": false
        }
      ],
      "logsBloom": "0x00000008000000000000000000000000000000000000000000000000000000000000000000000000000000000000000000000000000000000000000000000000000000002000000000020008000000010000000000000000000000000000000000000000020000000000000000000800000000000000000000000010000000000000000000000000000000000000000000000000000000000081000000000000000000000000000000000000000000000000000000000000000000000000000000000002000000000000000000000000000000000000000000000000000020000000000000000000000000000000000000000000000000000000000000000000",
      "transactionHash": "0xa38f3b4a2f7e78f8ce4fd28fb8aa80614f4b834b8581bec7b48f50142e3779fb",
      "transactionIndex": "0xce",
      "blockHash": "0x41243a1ab4acdf09933148163e1f87b84db0470a04dd7c55f75afc5f98be26d7",
      "blockNumber": "0xa84fd0",
      "gasUsed": "0x84a2",
      "effectiveGasPrice": "0x141bcf86d",
      "from": "0x5587fd98f5b5d8d0ddc09e49cddd08771bf0be1a",
      "to": "0xd2b4047843ea81bff25cc022cc045888a93f3fa2",
      "contractAddress": null
    },
    {
      "type": "0x2",
      "status": "0x1",
      "cumulativeGasUsed": "0x12e1019",
      "logs": [
        {
          "address": "0xd2b4047843ea81bff25cc022cc045888a93f3fa2",
          "topics": [
            "0x8c5be1e5ebec7d5bd14f71427d1e84f3dd0314c0f7b2291e5b200ac8c7c3b925",
            "0x0000000000000000000000005587fd98f5b5d8d0ddc09e49cddd08771bf0be1a",
            "0x000000000000000000000000a088341c5fad8115b2bc6b503467e39b47d45936"
          ],
          "data": "0x00000000000000000000000000000000000000000000021e19e0c9bab2400000",
          "blockHash": "0xb7d5c161adc1df62f575a9ea372774b52442d375a54e1e05a18dd18e992844cb",
          "blockNumber": "0xa84fd1",
          "blockTimestamp": "0x6a2980ac",
          "transactionHash": "0xe0d3baebe890ec2d463fb8e317d39a0b906b9096904a4ffedff2d35616e75e7f",
          "transactionIndex": "0xbb",
          "logIndex": "0x23a",
          "removed": false
        }
      ],
      "logsBloom": "0x00000008000000000000000000000000000000000000000000000000000000000000000000000000000000000000000000000000000000000000000000200000000000002000000000020000000000010000000000000000000000000000000000000000000000000000000000000000080000000000000000000040000000000000000000000000000000000000000000000000000000000081000000000000020000000000000000000000000000000000000000000000000000000000000000000000000000000000000000000000000000000000000000000000000000000010000000000000000000000000000000040000000000000000000000000000",
      "transactionHash": "0xe0d3baebe890ec2d463fb8e317d39a0b906b9096904a4ffedff2d35616e75e7f",
      "transactionIndex": "0xbb",
      "blockHash": "0xb7d5c161adc1df62f575a9ea372774b52442d375a54e1e05a18dd18e992844cb",
      "blockNumber": "0xa84fd1",
      "gasUsed": "0x65cd",
      "effectiveGasPrice": "0x1454e0d4d",
      "from": "0x5587fd98f5b5d8d0ddc09e49cddd08771bf0be1a",
      "to": "0xd2b4047843ea81bff25cc022cc045888a93f3fa2",
      "contractAddress": null
    },
    {
      "type": "0x2",
      "status": "0x1",
      "cumulativeGasUsed": "0x149b92e",
      "logs": [
        {
          "address": "0xceb20161c104c87aae2664dcb5aa5ca000de6b62",
          "topics": [
            "0x60419e729b02f0ff9742581bf3e9d852f84f7949bc004d7a18a44148bbb4480a"
          ],
          "data": "0x000000000000000000000000000000000000000000000000d02ab486cedc0000000000000000000000000000000000000000000000000000de0b6b3a76400000000000000000000000000000000000000000000000000000000000000000029a000000000000000000000000000000000000000000000000000000006a2980b8",
          "blockHash": "0xd8215180db9143e2e7b379b236a5893152a71ff2536f1d96f27f605e52ea4d63",
          "blockNumber": "0xa84fd2",
          "blockTimestamp": "0x6a2980b8",
          "transactionHash": "0xff705c28dd14f5d970eb5b3bbbefdf902d7f2e9e0ad5f43b5c98f9074a40bc15",
          "transactionIndex": "0xb2",
          "logIndex": "0x210",
          "removed": false
        },
        {
          "address": "0x9165e5ec71d2815d6681f96364a10ed708ab85c4",
          "topics": [
            "0x60419e729b02f0ff9742581bf3e9d852f84f7949bc004d7a18a44148bbb4480a"
          ],
          "data": "0x000000000000000000000000000000000000000000000000d02ab486cedc0000000000000000000000000000000000000000000000000000de0b6b3a76400000000000000000000000000000000000000000000000000000000000000000029a000000000000000000000000000000000000000000000000000000006a2980b8",
          "blockHash": "0xd8215180db9143e2e7b379b236a5893152a71ff2536f1d96f27f605e52ea4d63",
          "blockNumber": "0xa84fd2",
          "blockTimestamp": "0x6a2980b8",
          "transactionHash": "0xff705c28dd14f5d970eb5b3bbbefdf902d7f2e9e0ad5f43b5c98f9074a40bc15",
          "transactionIndex": "0xb2",
          "logIndex": "0x211",
          "removed": false
        },
        {
          "address": "0x80fe0ec30c29b0c4c996b463b6869060b7c74a75",
          "topics": [
            "0x40e9cecb9f5f1f1c5b9c97dec2917b7ee92e57ba5563708daca94dd84ad7112f",
            "0x22d8b533a964aa3746ea32722f70bbc2f3a073f9e4ace158cb16f1726c84d33d",
            "0x000000000000000000000000a088341c5fad8115b2bc6b503467e39b47d45936"
          ],
          "data": "0x00000000000000000000000000000000000000000000001b1ccd731e0c106352fffffffffffffffffffffffffffffffffffffffffffffde1e61f36454dc000000000000000000000000000000000000000000004ff7ced916872b020c325ee1000000000000000000000000000000000000000000000021e19e0c9bab24000000000000000000000000000000000000000000000000000000000000000007db600000000000000000000000000000000000000000000000000000000000001f4",
          "blockHash": "0xd8215180db9143e2e7b379b236a5893152a71ff2536f1d96f27f605e52ea4d63",
          "blockNumber": "0xa84fd2",
          "blockTimestamp": "0x6a2980b8",
          "transactionHash": "0xff705c28dd14f5d970eb5b3bbbefdf902d7f2e9e0ad5f43b5c98f9074a40bc15",
          "transactionIndex": "0xb2",
          "logIndex": "0x212",
          "removed": false
        },
        {
          "address": "0x6f1947c64569bc394ccb312efe12aa7aa7c49fda",
          "topics": [
            "0xddf252ad1be2c89b69c2b068fc378daa952ba7f163c4a11628f55a4df523b3ef",
            "0x00000000000000000000000080fe0ec30c29b0c4c996b463b6869060b7c74a75",
            "0x0000000000000000000000009165e5ec71d2815d6681f96364a10ed708ab85c4"
          ],
          "data": "0x00000000000000000000000000000000000000000000000001635e7cad920692",
          "blockHash": "0xd8215180db9143e2e7b379b236a5893152a71ff2536f1d96f27f605e52ea4d63",
          "blockNumber": "0xa84fd2",
          "blockTimestamp": "0x6a2980b8",
          "transactionHash": "0xff705c28dd14f5d970eb5b3bbbefdf902d7f2e9e0ad5f43b5c98f9074a40bc15",
          "transactionIndex": "0xb2",
          "logIndex": "0x213",
          "removed": false
        },
        {
          "address": "0x6f1947c64569bc394ccb312efe12aa7aa7c49fda",
          "topics": [
            "0x8c5be1e5ebec7d5bd14f71427d1e84f3dd0314c0f7b2291e5b200ac8c7c3b925",
            "0x0000000000000000000000009165e5ec71d2815d6681f96364a10ed708ab85c4",
            "0x000000000000000000000000b651ea78a4388b8813e85f4479ddc4be78977f3b"
          ],
          "data": "0x00000000000000000000000000000000000000000000000001635e7cad920692",
          "blockHash": "0xd8215180db9143e2e7b379b236a5893152a71ff2536f1d96f27f605e52ea4d63",
          "blockNumber": "0xa84fd2",
          "blockTimestamp": "0x6a2980b8",
          "transactionHash": "0xff705c28dd14f5d970eb5b3bbbefdf902d7f2e9e0ad5f43b5c98f9074a40bc15",
          "transactionIndex": "0xb2",
          "logIndex": "0x214",
          "removed": false
        },
        {
          "address": "0x6f1947c64569bc394ccb312efe12aa7aa7c49fda",
          "topics": [
            "0xddf252ad1be2c89b69c2b068fc378daa952ba7f163c4a11628f55a4df523b3ef",
            "0x0000000000000000000000009165e5ec71d2815d6681f96364a10ed708ab85c4",
            "0x000000000000000000000000b651ea78a4388b8813e85f4479ddc4be78977f3b"
          ],
          "data": "0x00000000000000000000000000000000000000000000000001635e7cad920692",
          "blockHash": "0xd8215180db9143e2e7b379b236a5893152a71ff2536f1d96f27f605e52ea4d63",
          "blockNumber": "0xa84fd2",
          "blockTimestamp": "0x6a2980b8",
          "transactionHash": "0xff705c28dd14f5d970eb5b3bbbefdf902d7f2e9e0ad5f43b5c98f9074a40bc15",
          "transactionIndex": "0xb2",
          "logIndex": "0x215",
          "removed": false
        },
        {
          "address": "0xd2b4047843ea81bff25cc022cc045888a93f3fa2",
          "topics": [
            "0xddf252ad1be2c89b69c2b068fc378daa952ba7f163c4a11628f55a4df523b3ef",
            "0x000000000000000000000000b651ea78a4388b8813e85f4479ddc4be78977f3b",
            "0x0000000000000000000000009165e5ec71d2815d6681f96364a10ed708ab85c4"
          ],
          "data": "0x0000000000000000000000000000000000000000000000001635e7cad9206920",
          "blockHash": "0xd8215180db9143e2e7b379b236a5893152a71ff2536f1d96f27f605e52ea4d63",
          "blockNumber": "0xa84fd2",
          "blockTimestamp": "0x6a2980b8",
          "transactionHash": "0xff705c28dd14f5d970eb5b3bbbefdf902d7f2e9e0ad5f43b5c98f9074a40bc15",
          "transactionIndex": "0xb2",
          "logIndex": "0x216",
          "removed": false
        },
        {
          "address": "0xb651ea78a4388b8813e85f4479ddc4be78977f3b",
          "topics": [
            "0xaf3d3c43bc19cfa1dc2cc14eb7bae4a91e33127152762973bf23367da0496d69",
            "0x0000000000000000000000006f1947c64569bc394ccb312efe12aa7aa7c49fda",
            "0x0000000000000000000000009165e5ec71d2815d6681f96364a10ed708ab85c4"
          ],
          "data": "0x0000000000000000000000000000000000000000000069e1241b2c68d9bcb7fa00000000000000000000000000000000000000000000000001635e7cad920692",
          "blockHash": "0xd8215180db9143e2e7b379b236a5893152a71ff2536f1d96f27f605e52ea4d63",
          "blockNumber": "0xa84fd2",
          "blockTimestamp": "0x6a2980b8",
          "transactionHash": "0xff705c28dd14f5d970eb5b3bbbefdf902d7f2e9e0ad5f43b5c98f9074a40bc15",
          "transactionIndex": "0xb2",
          "logIndex": "0x217",
          "removed": false
        },
        {
          "address": "0xb651ea78a4388b8813e85f4479ddc4be78977f3b",
          "topics": [
            "0xaf3d3c43bc19cfa1dc2cc14eb7bae4a91e33127152762973bf23367da0496d69",
            "0x000000000000000000000000d2b4047843ea81bff25cc022cc045888a93f3fa2",
            "0x0000000000000000000000009165e5ec71d2815d6681f96364a10ed708ab85c4"
          ],
          "data": "0x0000000000000000000000000000000000000000000069e0e2e117369bb4e578ffffffffffffffffffffffffffffffffffffffffffffffffe9ca183526df96e0",
          "blockHash": "0xd8215180db9143e2e7b379b236a5893152a71ff2536f1d96f27f605e52ea4d63",
          "blockNumber": "0xa84fd2",
          "blockTimestamp": "0x6a2980b8",
          "transactionHash": "0xff705c28dd14f5d970eb5b3bbbefdf902d7f2e9e0ad5f43b5c98f9074a40bc15",
          "transactionIndex": "0xb2",
          "logIndex": "0x218",
          "removed": false
        },
        {
          "address": "0xb651ea78a4388b8813e85f4479ddc4be78977f3b",
          "topics": [
            "0x902ab2223b65a639ed4b0a84d023660d162a68faa0ab33a023094ae44708bb6a",
            "0x0000000000000000000000009165e5ec71d2815d6681f96364a10ed708ab85c4"
          ],
          "data": "0x0000000000000000000000000000000000000000000069e0e2e117369bb4e578ffffffffffffffffffffffffffffffffffffffffffffffffe9ca183526df96e0",
          "blockHash": "0xd8215180db9143e2e7b379b236a5893152a71ff2536f1d96f27f605e52ea4d63",
          "blockNumber": "0xa84fd2",
          "blockTimestamp": "0x6a2980b8",
          "transactionHash": "0xff705c28dd14f5d970eb5b3bbbefdf902d7f2e9e0ad5f43b5c98f9074a40bc15",
          "transactionIndex": "0xb2",
          "logIndex": "0x219",
          "removed": false
        },
        {
          "address": "0xd2b4047843ea81bff25cc022cc045888a93f3fa2",
          "topics": [
            "0x8c5be1e5ebec7d5bd14f71427d1e84f3dd0314c0f7b2291e5b200ac8c7c3b925",
            "0x0000000000000000000000009165e5ec71d2815d6681f96364a10ed708ab85c4",
            "0x00000000000000000000000062471b05d0f4fbb9df314406b79f433f1ec818b0"
          ],
          "data": "0x0000000000000000000000000000000000000000000000001635e7cad9206920",
          "blockHash": "0xd8215180db9143e2e7b379b236a5893152a71ff2536f1d96f27f605e52ea4d63",
          "blockNumber": "0xa84fd2",
          "blockTimestamp": "0x6a2980b8",
          "transactionHash": "0xff705c28dd14f5d970eb5b3bbbefdf902d7f2e9e0ad5f43b5c98f9074a40bc15",
          "transactionIndex": "0xb2",
          "logIndex": "0x21a",
          "removed": false
        },
        {
          "address": "0xd2b4047843ea81bff25cc022cc045888a93f3fa2",
          "topics": [
            "0xddf252ad1be2c89b69c2b068fc378daa952ba7f163c4a11628f55a4df523b3ef",
            "0x0000000000000000000000009165e5ec71d2815d6681f96364a10ed708ab85c4",
            "0x00000000000000000000000062471b05d0f4fbb9df314406b79f433f1ec818b0"
          ],
          "data": "0x0000000000000000000000000000000000000000000000001635e7cad9206920",
          "blockHash": "0xd8215180db9143e2e7b379b236a5893152a71ff2536f1d96f27f605e52ea4d63",
          "blockNumber": "0xa84fd2",
          "blockTimestamp": "0x6a2980b8",
          "transactionHash": "0xff705c28dd14f5d970eb5b3bbbefdf902d7f2e9e0ad5f43b5c98f9074a40bc15",
          "transactionIndex": "0xb2",
          "logIndex": "0x21b",
          "removed": false
        },
        {
          "address": "0x62471b05d0f4fbb9df314406b79f433f1ec818b0",
          "topics": [
            "0xddf252ad1be2c89b69c2b068fc378daa952ba7f163c4a11628f55a4df523b3ef",
            "0x0000000000000000000000000000000000000000000000000000000000000000",
            "0x00000000000000000000000062471b05d0f4fbb9df314406b79f433f1ec818b0"
          ],
          "data": "0x0000000000000000000000000000000000000000000000001635e7cad9206920",
          "blockHash": "0xd8215180db9143e2e7b379b236a5893152a71ff2536f1d96f27f605e52ea4d63",
          "blockNumber": "0xa84fd2",
          "blockTimestamp": "0x6a2980b8",
          "transactionHash": "0xff705c28dd14f5d970eb5b3bbbefdf902d7f2e9e0ad5f43b5c98f9074a40bc15",
          "transactionIndex": "0xb2",
          "logIndex": "0x21c",
          "removed": false
        },
        {
          "address": "0x62471b05d0f4fbb9df314406b79f433f1ec818b0",
          "topics": [
            "0xdcbc1c05240f31ff3ad067ef1ee35ce4997762752e3a095284754544f4c709d7",
            "0x0000000000000000000000009165e5ec71d2815d6681f96364a10ed708ab85c4",
            "0x00000000000000000000000062471b05d0f4fbb9df314406b79f433f1ec818b0"
          ],
          "data": "0x0000000000000000000000000000000000000000000000001635e7cad92069200000000000000000000000000000000000000000000000001635e7cad9206920",
          "blockHash": "0xd8215180db9143e2e7b379b236a5893152a71ff2536f1d96f27f605e52ea4d63",
          "blockNumber": "0xa84fd2",
          "blockTimestamp": "0x6a2980b8",
          "transactionHash": "0xff705c28dd14f5d970eb5b3bbbefdf902d7f2e9e0ad5f43b5c98f9074a40bc15",
          "transactionIndex": "0xb2",
          "logIndex": "0x21d",
          "removed": false
        },
        {
          "address": "0x924b2aec4657d68bfcd7b6d908d45403bdfc5c9f",
          "topics": [
            "0x1b3d7edb2e9c0b0e7c525b20aaaef0f5940d2ed71663c7d39266ecafac728859",
            "0x0000000000000000000000000000000000000000000000000000000000000000",
            "0x000000000000000000000000a088341c5fad8115b2bc6b503467e39b47d45936",
            "0x0000000000000000000000000000000000000000000000000000000000000001"
          ],
          "data": "0x0000000000000000000000009165e5ec71d2815d6681f96364a10ed708ab85c40000000000000000000000000000000000000000000000000038dbeafd0d1fc5",
          "blockHash": "0xd8215180db9143e2e7b379b236a5893152a71ff2536f1d96f27f605e52ea4d63",
          "blockNumber": "0xa84fd2",
          "blockTimestamp": "0x6a2980b8",
          "transactionHash": "0xff705c28dd14f5d970eb5b3bbbefdf902d7f2e9e0ad5f43b5c98f9074a40bc15",
          "transactionIndex": "0xb2",
          "logIndex": "0x21e",
          "removed": false
        },
        {
          "address": "0x9165e5ec71d2815d6681f96364a10ed708ab85c4",
          "topics": [
            "0x143f277ab7631008a141d4adfe06e8b7c5a169fc406e826eb1c53e4ca6f6e0af",
            "0x22d8b533a964aa3746ea32722f70bbc2f3a073f9e4ace158cb16f1726c84d33d",
            "0x000000000000000000000000a088341c5fad8115b2bc6b503467e39b47d45936"
          ],
          "data": "0x0000000000000000000000006f1947c64569bc394ccb312efe12aa7aa7c49fda00000000000000000000000000000000000000000000000001635e7cad9206920000000000000000000000000000000000000000000000001635e7cad92069200000000000000000000000000000000000000000000000000000000000000002",
          "blockHash": "0xd8215180db9143e2e7b379b236a5893152a71ff2536f1d96f27f605e52ea4d63",
          "blockNumber": "0xa84fd2",
          "blockTimestamp": "0x6a2980b8",
          "transactionHash": "0xff705c28dd14f5d970eb5b3bbbefdf902d7f2e9e0ad5f43b5c98f9074a40bc15",
          "transactionIndex": "0xb2",
          "logIndex": "0x21f",
          "removed": false
        },
        {
          "address": "0x9165e5ec71d2815d6681f96364a10ed708ab85c4",
          "topics": [
            "0x179d4530c0170f3435081eb9e0c14edc5c87c5e8708c2a5e94caba45fa687a9f",
            "0x22d8b533a964aa3746ea32722f70bbc2f3a073f9e4ace158cb16f1726c84d33d"
          ],
          "data": "0x0000000000000000000000006f1947c64569bc394ccb312efe12aa7aa7c49fda00000000000000000000000000000000000000000000000001635e7cad9206920000000000000000000000000000000000000000000000001635e7cad9206920",
          "blockHash": "0xd8215180db9143e2e7b379b236a5893152a71ff2536f1d96f27f605e52ea4d63",
          "blockNumber": "0xa84fd2",
          "blockTimestamp": "0x6a2980b8",
          "transactionHash": "0xff705c28dd14f5d970eb5b3bbbefdf902d7f2e9e0ad5f43b5c98f9074a40bc15",
          "transactionIndex": "0xb2",
          "logIndex": "0x220",
          "removed": false
        },
        {
          "address": "0xd2b4047843ea81bff25cc022cc045888a93f3fa2",
          "topics": [
            "0xddf252ad1be2c89b69c2b068fc378daa952ba7f163c4a11628f55a4df523b3ef",
            "0x0000000000000000000000005587fd98f5b5d8d0ddc09e49cddd08771bf0be1a",
            "0x00000000000000000000000080fe0ec30c29b0c4c996b463b6869060b7c74a75"
          ],
          "data": "0x00000000000000000000000000000000000000000000021e19e0c9bab2400000",
          "blockHash": "0xd8215180db9143e2e7b379b236a5893152a71ff2536f1d96f27f605e52ea4d63",
          "blockNumber": "0xa84fd2",
          "blockTimestamp": "0x6a2980b8",
          "transactionHash": "0xff705c28dd14f5d970eb5b3bbbefdf902d7f2e9e0ad5f43b5c98f9074a40bc15",
          "transactionIndex": "0xb2",
          "logIndex": "0x221",
          "removed": false
        },
        {
          "address": "0x6f1947c64569bc394ccb312efe12aa7aa7c49fda",
          "topics": [
            "0xddf252ad1be2c89b69c2b068fc378daa952ba7f163c4a11628f55a4df523b3ef",
            "0x00000000000000000000000080fe0ec30c29b0c4c996b463b6869060b7c74a75",
            "0x0000000000000000000000005587fd98f5b5d8d0ddc09e49cddd08771bf0be1a"
          ],
          "data": "0x00000000000000000000000000000000000000000000001b1b6a14a15e7e5cc0",
          "blockHash": "0xd8215180db9143e2e7b379b236a5893152a71ff2536f1d96f27f605e52ea4d63",
          "blockNumber": "0xa84fd2",
          "blockTimestamp": "0x6a2980b8",
          "transactionHash": "0xff705c28dd14f5d970eb5b3bbbefdf902d7f2e9e0ad5f43b5c98f9074a40bc15",
          "transactionIndex": "0xb2",
          "logIndex": "0x222",
          "removed": false
        }
      ],
      "logsBloom": "0x0000000800000000000000000000000000000000000000040102100040000000010000000000000000001400000800008040000004000000010000020024000000000240290000000002000800080c010000090000040020010000000080000000000080020000000000000002000800080000000005000000010150000000000000400000000000000000000000200004000008008020000081000000000040020001000080000000001000001060000044000000800000000000000000000000002002100100000000000000080000000000000008010040004000000160000010000000000000004000000000000000040000000000040000020804000200",
      "transactionHash": "0xff705c28dd14f5d970eb5b3bbbefdf902d7f2e9e0ad5f43b5c98f9074a40bc15",
      "transactionIndex": "0xb2",
      "blockHash": "0xd8215180db9143e2e7b379b236a5893152a71ff2536f1d96f27f605e52ea4d63",
      "blockNumber": "0xa84fd2",
      "gasUsed": "0x5910c",
      "effectiveGasPrice": "0x13e082e77",
      "from": "0x5587fd98f5b5d8d0ddc09e49cddd08771bf0be1a",
      "to": "0xa088341c5fad8115b2bc6b503467e39b47d45936",
      "contractAddress": null
    },
    {
      "type": "0x2",
      "status": "0x1",
      "cumulativeGasUsed": "0x1426410",
      "logs": [],
      "logsBloom": "0x00000000000000000000000000000000000000000000000000000000000000000000000000000000000000000000000000000000000000000000000000000000000000000000000000000000000000000000000000000000000000000000000000000000000000000000000000000000000000000000000000000000000000000000000000000000000000000000000000000000000000000000000000000000000000000000000000000000000000000000000000000000000000000000000000000000000000000000000000000000000000000000000000000000000000000000000000000000000000000000000000000000000000000000000000000000",
      "transactionHash": "0x33b1b268229b21e4bc842d5d4a819496c4eac9b234c632f86ef07a39adfafc27",
      "transactionIndex": "0xca",
      "blockHash": "0x33899cbc75afcbc311357697b6440419e6d4582bd8688d501d1886ad43718f1f",
      "blockNumber": "0xa84fd3",
      "gasUsed": "0x7ad9",
      "effectiveGasPrice": "0x13eabebd9",
      "from": "0x5587fd98f5b5d8d0ddc09e49cddd08771bf0be1a",
      "to": "0x958979f81f32630483189695add36c8fe123ed71",
      "contractAddress": null
    },
    {
      "type": "0x2",
      "status": "0x1",
      "cumulativeGasUsed": "0xcce5f7",
      "logs": [
        {
          "address": "0xd2b4047843ea81bff25cc022cc045888a93f3fa2",
          "topics": [
            "0xddf252ad1be2c89b69c2b068fc378daa952ba7f163c4a11628f55a4df523b3ef",
            "0x0000000000000000000000000000000000000000000000000000000000000000",
            "0x0000000000000000000000005587fd98f5b5d8d0ddc09e49cddd08771bf0be1a"
          ],
          "data": "0x00000000000000000000000000000000000000000000021e19e0c9bab2400000",
          "blockHash": "0xc58e6213d9c398810947e8c2416cdc05c0aad530a7712dfd9ab8e5c2a24716b1",
          "blockNumber": "0xa84fd4",
          "blockTimestamp": "0x6a2980d0",
          "transactionHash": "0x744248e56592d3c433e7b195a654f7f12aba93f77951c3f52efd1ddcacdb2b57",
          "transactionIndex": "0x84",
          "logIndex": "0x176",
          "removed": false
        }
      ],
      "logsBloom": "0x00000008000000000000000000000000000000000000000000000000000000000000000000000000000000000000000000000000000000000000000000000000000000002000000000020008000000010000000000000000000000000000000000000000020000000000000000000800000000000000000000000010000000000000000000000000000000000000000000000000000000000081000000000000000000000000000000000000000000000000000000000000000000000000000000000002000000000000000000000000000000000000000000000000000020000000000000000000000000000000000000000000000000000000000000000000",
      "transactionHash": "0x744248e56592d3c433e7b195a654f7f12aba93f77951c3f52efd1ddcacdb2b57",
      "transactionIndex": "0x84",
      "blockHash": "0xc58e6213d9c398810947e8c2416cdc05c0aad530a7712dfd9ab8e5c2a24716b1",
      "blockNumber": "0xa84fd4",
      "gasUsed": "0x84a2",
      "effectiveGasPrice": "0x138aedde0",
      "from": "0x5587fd98f5b5d8d0ddc09e49cddd08771bf0be1a",
      "to": "0xd2b4047843ea81bff25cc022cc045888a93f3fa2",
      "contractAddress": null
    },
    {
      "type": "0x2",
      "status": "0x1",
      "cumulativeGasUsed": "0x1b8a249",
      "logs": [
        {
          "address": "0xd2b4047843ea81bff25cc022cc045888a93f3fa2",
          "topics": [
            "0x8c5be1e5ebec7d5bd14f71427d1e84f3dd0314c0f7b2291e5b200ac8c7c3b925",
            "0x0000000000000000000000005587fd98f5b5d8d0ddc09e49cddd08771bf0be1a",
            "0x000000000000000000000000a088341c5fad8115b2bc6b503467e39b47d45936"
          ],
          "data": "0x00000000000000000000000000000000000000000000021e19e0c9bab2400000",
          "blockHash": "0x2d07b81021493beb781f5c1b61ef7e58342ba5106f8ec741f5107a63fe48d74f",
          "blockNumber": "0xa84fd5",
          "blockTimestamp": "0x6a2980dc",
          "transactionHash": "0x22e7394450bce706e612007fad45d9a047e8347911a9f44ec03bf38d5ad4efaf",
          "transactionIndex": "0xd6",
          "logIndex": "0x2af",
          "removed": false
        }
      ],
      "logsBloom": "0x00000008000000000000000000000000000000000000000000000000000000000000000000000000000000000000000000000000000000000000000000200000000000002000000000020000000000010000000000000000000000000000000000000000000000000000000000000000080000000000000000000040000000000000000000000000000000000000000000000000000000000081000000000000020000000000000000000000000000000000000000000000000000000000000000000000000000000000000000000000000000000000000000000000000000000010000000000000000000000000000000040000000000000000000000000000",
      "transactionHash": "0x22e7394450bce706e612007fad45d9a047e8347911a9f44ec03bf38d5ad4efaf",
      "transactionIndex": "0xd6",
      "blockHash": "0x2d07b81021493beb781f5c1b61ef7e58342ba5106f8ec741f5107a63fe48d74f",
      "blockNumber": "0xa84fd5",
      "gasUsed": "0xb389",
      "effectiveGasPrice": "0x12aadeecf",
      "from": "0x5587fd98f5b5d8d0ddc09e49cddd08771bf0be1a",
      "to": "0xd2b4047843ea81bff25cc022cc045888a93f3fa2",
      "contractAddress": null
    }
  ],
  "libraries": [],
  "pending": [],
  "returns": {},
  "timestamp": 1781104873930,
  "chain": 11155111,
  "commit": "83a2bab"
}